{
	"challenge_2.sol": {
		"collect": {
			"abi": [
				{
					"stateMutability": "payable",
					"type": "fallback"
				},
				{
					"inputs": [
						{
							"internalType": "address",
							"name": "",
							"type": "address"
						}
					],
					"name": "bid",
					"outputs": [
						{
							"internalType": "bool",
							"name": "",
							"type": "bool"
						}
					],
					"stateMutability": "view",
					"type": "function"
				},
				{
					"inputs": [],
					"name": "bidAmount",
					"outputs": [
						{
							"internalType": "uint256",
							"name": "",
							"type": "uint256"
						}
					],
					"stateMutability": "view",
					"type": "function"
				},
				{
					"inputs": [],
					"name": "claimReward",
					"outputs": [],
					"stateMutability": "nonpayable",
					"type": "function"
				},
				{
					"inputs": [
						{
							"internalType": "uint256",
							"name": "",
							"type": "uint256"
						}
					],
					"name": "participants",
					"outputs": [
						{
							"internalType": "address",
							"name": "",
							"type": "address"
						}
					],
					"stateMutability": "view",
					"type": "function"
				},
				{
					"inputs": [],
					"name": "participate",
					"outputs": [],
					"stateMutability": "payable",
					"type": "function"
				},
				{
					"inputs": [],
					"name": "winner",
					"outputs": [
						{
							"internalType": "address",
							"name": "",
							"type": "address"
						}
					],
					"stateMutability": "view",
					"type": "function"
				}
			],
			"devdoc": {
				"kind": "dev",
				"methods": {},
				"version": 1
			},
			"evm": {
				"assembly": "    /* \"challenge_2.sol\":63:1412  contract collect {... */\n  mstore(0x40, 0x80)\n    /* \"challenge_2.sol\":116:123  1 ether */\n  0x0de0b6b3a7640000\n    /* \"challenge_2.sol\":89:123  uint256 public bidAmount = 1 ether */\n  0x00\n  sstore\n    /* \"challenge_2.sol\":63:1412  contract collect {... */\n  callvalue\n  dup1\n  iszero\n  tag_1\n  jumpi\n  0x00\n  dup1\n  revert\ntag_1:\n  pop\n  dataSize(sub_0)\n  dup1\n  dataOffset(sub_0)\n  0x00\n  codecopy\n  0x00\n  return\nstop\n\nsub_0: assembly {\n        /* \"challenge_2.sol\":63:1412  contract collect {... */\n      mstore(0x40, 0x80)\n      jumpi(tag_1, lt(calldatasize, 0x04))\n      shr(0xe0, calldataload(0x00))\n      dup1\n      0x35c1d349\n      eq\n      tag_3\n      jumpi\n      dup1\n      0x9cf5453d\n      eq\n      tag_4\n      jumpi\n      dup1\n      0xaec2393b\n      eq\n      tag_5\n      jumpi\n      dup1\n      0xb88a802f\n      eq\n      tag_6\n      jumpi\n      dup1\n      0xd11711a2\n      eq\n      tag_7\n      jumpi\n      dup1\n      0xdfbf53ae\n      eq\n      tag_8\n      jumpi\n      jump(tag_2)\n    tag_1:\n    tag_2:\n        /* \"challenge_2.sol\":677:678  0 */\n      0x00\n        /* \"challenge_2.sol\":659:679  winner == address(0) */\n      0xffffffffffffffffffffffffffffffffffffffff\n      and\n        /* \"challenge_2.sol\":659:665  winner */\n      0x03\n      0x00\n      swap1\n      sload\n      swap1\n      0x0100\n      exp\n      swap1\n      div\n      0xffffffffffffffffffffffffffffffffffffffff\n      and\n        /* \"challenge_2.sol\":659:679  winner == address(0) */\n      0xffffffffffffffffffffffffffffffffffffffff\n      and\n      eq\n        /* \"challenge_2.sol\":651:705  require(winner == address(0), \"winner already chosen\") */\n      tag_11\n      jumpi\n      mload(0x40)\n      0x08c379a000000000000000000000000000000000000000000000000000000000\n      dup2\n      mstore\n      0x04\n      add\n      tag_12\n      swap1\n      tag_13\n      jump\t// in\n    tag_12:\n      mload(0x40)\n      dup1\n      swap2\n      sub\n      swap1\n      revert\n    tag_11:\n        /* \"challenge_2.sol\":738:747  tx.origin */\n      origin\n        /* \"challenge_2.sol\":724:747  msg.sender == tx.origin */\n      0xffffffffffffffffffffffffffffffffffffffff\n      and\n        /* \"challenge_2.sol\":724:734  msg.sender */\n      caller\n        /* \"challenge_2.sol\":724:747  msg.sender == tx.origin */\n      0xffffffffffffffffffffffffffffffffffffffff\n      and\n      eq\n        /* \"challenge_2.sol\":716:772  require(msg.sender == tx.origin, \"only human execution\") */\n      tag_14\n      jumpi\n      mload(0x40)\n      0x08c379a000000000000000000000000000000000000000000000000000000000\n      dup2\n      mstore\n      0x04\n      add\n      tag_15\n      swap1\n      tag_16\n      jump\t// in\n    tag_15:\n      mload(0x40)\n      dup1\n      swap2\n      sub\n      swap1\n      revert\n    tag_14:\n        /* \"challenge_2.sol\":820:821  4 */\n      0x04\n        /* \"challenge_2.sol\":797:809  participants */\n      0x02\n        /* \"challenge_2.sol\":797:816  participants.length */\n      dup1\n      sload\n      swap1\n      pop\n        /* \"challenge_2.sol\":797:821  participants.length == 4 */\n      sub\n        /* \"challenge_2.sol\":793:878  if (participants.length == 4) {... */\n      tag_17\n      jumpi\n        /* \"challenge_2.sol\":865:866  4 */\n      0x04\n        /* \"challenge_2.sol\":847:862  block.timestamp */\n      timestamp\n        /* \"challenge_2.sol\":847:866  block.timestamp % 4 */\n      tag_18\n      swap2\n      swap1\n      tag_19\n      jump\t// in\n    tag_18:\n        /* \"challenge_2.sol\":834:844  luckyIndex */\n      0x05\n        /* \"challenge_2.sol\":834:866  luckyIndex = block.timestamp % 4 */\n      dup2\n      swap1\n      sstore\n      pop\n        /* \"challenge_2.sol\":793:878  if (participants.length == 4) {... */\n    tag_17:\n        /* \"challenge_2.sol\":901:913  participants */\n      0x02\n        /* \"challenge_2.sol\":914:924  luckyIndex */\n      sload(0x05)\n        /* \"challenge_2.sol\":901:925  participants[luckyIndex] */\n      dup2\n      sload\n      dup2\n      lt\n      tag_20\n      jumpi\n      tag_21\n      tag_22\n      jump\t// in\n    tag_21:\n    tag_20:\n      swap1\n      0x00\n      mstore\n      keccak256(0x00, 0x20)\n      add\n      0x00\n      swap1\n      sload\n      swap1\n      0x0100\n      exp\n      swap1\n      div\n      0xffffffffffffffffffffffffffffffffffffffff\n      and\n        /* \"challenge_2.sol\":892:898  winner */\n      0x03\n      0x00\n        /* \"challenge_2.sol\":892:925  winner = participants[luckyIndex] */\n      0x0100\n      exp\n      dup2\n      sload\n      dup2\n      0xffffffffffffffffffffffffffffffffffffffff\n      mul\n      not\n      and\n      swap1\n      dup4\n      0xffffffffffffffffffffffffffffffffffffffff\n      and\n      mul\n      or\n      swap1\n      sstore\n      pop\n        /* \"challenge_2.sol\":944:945  0 */\n      0x00\n        /* \"challenge_2.sol\":936:941  start */\n      0x04\n        /* \"challenge_2.sol\":936:945  start = 0 */\n      dup2\n      swap1\n      sstore\n      pop\n        /* \"challenge_2.sol\":964:979  block.timestamp */\n      timestamp\n        /* \"challenge_2.sol\":956:961  start */\n      0x04\n        /* \"challenge_2.sol\":956:979  start = block.timestamp */\n      dup2\n      swap1\n      sstore\n      stop\n        /* \"challenge_2.sol\":176:205  address[] public participants */\n    tag_3:\n      callvalue\n      dup1\n      iszero\n      tag_24\n      jumpi\n      0x00\n      dup1\n      revert\n    tag_24:\n      pop\n      tag_25\n      0x04\n      dup1\n      calldatasize\n      sub\n      dup2\n      add\n      swap1\n      tag_26\n      swap2\n      swap1\n      tag_27\n      jump\t// in\n    tag_26:\n      tag_28\n      jump\t// in\n    tag_25:\n      mload(0x40)\n      tag_29\n      swap2\n      swap1\n      tag_30\n      jump\t// in\n    tag_29:\n      mload(0x40)\n      dup1\n      swap2\n      sub\n      swap1\n      return\n        /* \"challenge_2.sol\":132:167  mapping(address => bool) public bid */\n    tag_4:\n      callvalue\n      dup1\n      iszero\n      tag_31\n      jumpi\n      0x00\n      dup1\n      revert\n    tag_31:\n      pop\n      tag_32\n      0x04\n      dup1\n      calldatasize\n      sub\n      dup2\n      add\n      swap1\n      tag_33\n      swap2\n      swap1\n      tag_34\n      jump\t// in\n    tag_33:\n      tag_35\n      jump\t// in\n    tag_32:\n      mload(0x40)\n      tag_36\n      swap2\n      swap1\n      tag_37\n      jump\t// in\n    tag_36:\n      mload(0x40)\n      dup1\n      swap2\n      sub\n      swap1\n      return\n        /* \"challenge_2.sol\":89:123  uint256 public bidAmount = 1 ether */\n    tag_5:\n      callvalue\n      dup1\n      iszero\n      tag_38\n      jumpi\n      0x00\n      dup1\n      revert\n    tag_38:\n      pop\n      tag_39\n      tag_40\n      jump\t// in\n    tag_39:\n      mload(0x40)\n      tag_41\n      swap2\n      swap1\n      tag_42\n      jump\t// in\n    tag_41:\n      mload(0x40)\n      dup1\n      swap2\n      sub\n      swap1\n      return\n        /* \"challenge_2.sol\":1008:1409  function claimReward() public {... */\n    tag_6:\n      callvalue\n      dup1\n      iszero\n      tag_43\n      jumpi\n      0x00\n      dup1\n      revert\n    tag_43:\n      pop\n      tag_44\n      tag_45\n      jump\t// in\n    tag_44:\n      stop\n        /* \"challenge_2.sol\":296:602  function participate() payable external {... */\n    tag_7:\n      tag_46\n      tag_47\n      jump\t// in\n    tag_46:\n      stop\n        /* \"challenge_2.sol\":214:235  address public winner */\n    tag_8:\n      callvalue\n      dup1\n      iszero\n      tag_48\n      jumpi\n      0x00\n      dup1\n      revert\n    tag_48:\n      pop\n      tag_49\n      tag_50\n      jump\t// in\n    tag_49:\n      mload(0x40)\n      tag_51\n      swap2\n      swap1\n      tag_30\n      jump\t// in\n    tag_51:\n      mload(0x40)\n      dup1\n      swap2\n      sub\n      swap1\n      return\n        /* \"challenge_2.sol\":176:205  address[] public participants */\n    tag_28:\n      0x02\n      dup2\n      dup2\n      sload\n      dup2\n      lt\n      tag_52\n      jumpi\n      0x00\n      dup1\n      revert\n    tag_52:\n      swap1\n      0x00\n      mstore\n      keccak256(0x00, 0x20)\n      add\n      0x00\n      swap2\n      pop\n      sload\n      swap1\n      0x0100\n      exp\n      swap1\n      div\n      0xffffffffffffffffffffffffffffffffffffffff\n      and\n      dup2\n      jump\t// out\n        /* \"challenge_2.sol\":132:167  mapping(address => bool) public bid */\n    tag_35:\n      mstore(0x20, 0x01)\n      dup1\n      0x00\n      mstore\n      keccak256(0x00, 0x40)\n      0x00\n      swap2\n      pop\n      sload\n      swap1\n      0x0100\n      exp\n      swap1\n      div\n      0xff\n      and\n      dup2\n      jump\t// out\n        /* \"challenge_2.sol\":89:123  uint256 public bidAmount = 1 ether */\n    tag_40:\n      sload(0x00)\n      dup2\n      jump\t// out\n        /* \"challenge_2.sol\":1008:1409  function claimReward() public {... */\n    tag_45:\n        /* \"challenge_2.sol\":1071:1077  winner */\n      0x03\n      0x00\n      swap1\n      sload\n      swap1\n      0x0100\n      exp\n      swap1\n      div\n      0xffffffffffffffffffffffffffffffffffffffff\n      and\n        /* \"challenge_2.sol\":1057:1077  msg.sender == winner */\n      0xffffffffffffffffffffffffffffffffffffffff\n      and\n        /* \"challenge_2.sol\":1057:1067  msg.sender */\n      caller\n        /* \"challenge_2.sol\":1057:1077  msg.sender == winner */\n      0xffffffffffffffffffffffffffffffffffffffff\n      and\n      eq\n        /* \"challenge_2.sol\":1049:1093  require(msg.sender == winner, \"not allowed\") */\n      tag_55\n      jumpi\n      mload(0x40)\n      0x08c379a000000000000000000000000000000000000000000000000000000000\n      dup2\n      mstore\n      0x04\n      add\n      tag_56\n      swap1\n      tag_57\n      jump\t// in\n    tag_56:\n      mload(0x40)\n      dup1\n      swap2\n      sub\n      swap1\n      revert\n    tag_55:\n        /* \"challenge_2.sol\":1138:1141  300 */\n      0x012c\n        /* \"challenge_2.sol\":1130:1135  start */\n      sload(0x04)\n        /* \"challenge_2.sol\":1112:1127  block.timestamp */\n      timestamp\n        /* \"challenge_2.sol\":1112:1135  block.timestamp - start */\n      tag_58\n      swap2\n      swap1\n      tag_59\n      jump\t// in\n    tag_58:\n        /* \"challenge_2.sol\":1112:1141  block.timestamp - start < 300 */\n      lt\n        /* \"challenge_2.sol\":1104:1157  require(block.timestamp - start < 300,\"time is over\") */\n      tag_60\n      jumpi\n      mload(0x40)\n      0x08c379a000000000000000000000000000000000000000000000000000000000\n      dup2\n      mstore\n      0x04\n      add\n      tag_61\n      swap1\n      tag_62\n      jump\t// in\n    tag_61:\n      mload(0x40)\n      dup1\n      swap2\n      sub\n      swap1\n      revert\n    tag_60:\n        /* \"challenge_2.sol\":1186:1196  msg.sender */\n      caller\n        /* \"challenge_2.sol\":1178:1206  payable(msg.sender).transfer */\n      0xffffffffffffffffffffffffffffffffffffffff\n      and\n        /* \"challenge_2.sol\":1178:1229  payable(msg.sender).transfer(address(this).balance) */\n      0x08fc\n        /* \"challenge_2.sol\":1207:1228  address(this).balance */\n      selfbalance\n        /* \"challenge_2.sol\":1178:1229  payable(msg.sender).transfer(address(this).balance) */\n      swap1\n      dup2\n      iszero\n      mul\n      swap1\n      mload(0x40)\n      0x00\n      mload(0x40)\n      dup1\n      dup4\n      sub\n      dup2\n      dup6\n      dup9\n      dup9\n      call\n      swap4\n      pop\n      pop\n      pop\n      pop\n      iszero\n      dup1\n      iszero\n      tag_64\n      jumpi\n      returndatasize\n      0x00\n      dup1\n      returndatacopy\n      revert(0x00, returndatasize)\n    tag_64:\n      pop\n        /* \"challenge_2.sol\":1259:1260  0 */\n      0x00\n        /* \"challenge_2.sol\":1242:1248  winner */\n      0x03\n      0x00\n        /* \"challenge_2.sol\":1242:1261  winner = address(0) */\n      0x0100\n      exp\n      dup2\n      sload\n      dup2\n      0xffffffffffffffffffffffffffffffffffffffff\n      mul\n      not\n      and\n      swap1\n      dup4\n      0xffffffffffffffffffffffffffffffffffffffff\n      and\n      mul\n      or\n      swap1\n      sstore\n      pop\n        /* \"challenge_2.sol\":1277:1286  uint256 i */\n      0x00\n        /* \"challenge_2.sol\":1273:1372  for(uint256 i=0; i<participants.length; i++){... */\n    tag_65:\n        /* \"challenge_2.sol\":1292:1304  participants */\n      0x02\n        /* \"challenge_2.sol\":1292:1311  participants.length */\n      dup1\n      sload\n      swap1\n      pop\n        /* \"challenge_2.sol\":1290:1291  i */\n      dup2\n        /* \"challenge_2.sol\":1290:1311  i<participants.length */\n      lt\n        /* \"challenge_2.sol\":1273:1372  for(uint256 i=0; i<participants.length; i++){... */\n      iszero\n      tag_66\n      jumpi\n        /* \"challenge_2.sol\":1355:1360  false */\n      0x00\n        /* \"challenge_2.sol\":1332:1335  bid */\n      0x01\n        /* \"challenge_2.sol\":1332:1352  bid[participants[i]] */\n      0x00\n        /* \"challenge_2.sol\":1336:1348  participants */\n      0x02\n        /* \"challenge_2.sol\":1349:1350  i */\n      dup5\n        /* \"challenge_2.sol\":1336:1351  participants[i] */\n      dup2\n      sload\n      dup2\n      lt\n      tag_68\n      jumpi\n      tag_69\n      tag_22\n      jump\t// in\n    tag_69:\n    tag_68:\n      swap1\n      0x00\n      mstore\n      keccak256(0x00, 0x20)\n      add\n      0x00\n      swap1\n      sload\n      swap1\n      0x0100\n      exp\n      swap1\n      div\n      0xffffffffffffffffffffffffffffffffffffffff\n      and\n        /* \"challenge_2.sol\":1332:1352  bid[participants[i]] */\n      0xffffffffffffffffffffffffffffffffffffffff\n      and\n      0xffffffffffffffffffffffffffffffffffffffff\n      and\n      dup2\n      mstore\n      0x20\n      add\n      swap1\n      dup2\n      mstore\n      0x20\n      add\n      0x00\n      keccak256\n      0x00\n        /* \"challenge_2.sol\":1332:1360  bid[participants[i]] = false */\n      0x0100\n      exp\n      dup2\n      sload\n      dup2\n      0xff\n      mul\n      not\n      and\n      swap1\n      dup4\n      iszero\n      iszero\n      mul\n      or\n      swap1\n      sstore\n      pop\n        /* \"challenge_2.sol\":1313:1316  i++ */\n      dup1\n      dup1\n      tag_71\n      swap1\n      tag_72\n      jump\t// in\n    tag_71:\n      swap2\n      pop\n      pop\n        /* \"challenge_2.sol\":1273:1372  for(uint256 i=0; i<participants.length; i++){... */\n      jump(tag_65)\n    tag_66:\n      pop\n        /* \"challenge_2.sol\":1389:1401  participants */\n      0x02\n      0x00\n        /* \"challenge_2.sol\":1382:1401  delete participants */\n      tag_73\n      swap2\n      swap1\n      tag_74\n      jump\t// in\n    tag_73:\n        /* \"challenge_2.sol\":1008:1409  function claimReward() public {... */\n      jump\t// out\n        /* \"challenge_2.sol\":296:602  function participate() payable external {... */\n    tag_47:\n        /* \"challenge_2.sol\":369:378  bidAmount */\n      sload(0x00)\n        /* \"challenge_2.sol\":356:365  msg.value */\n      callvalue\n        /* \"challenge_2.sol\":356:378  msg.value == bidAmount */\n      eq\n        /* \"challenge_2.sol\":348:399  require(msg.value == bidAmount, \"wrong bid amount\") */\n      tag_76\n      jumpi\n      mload(0x40)\n      0x08c379a000000000000000000000000000000000000000000000000000000000\n      dup2\n      mstore\n      0x04\n      add\n      tag_77\n      swap1\n      tag_78\n      jump\t// in\n    tag_77:\n      mload(0x40)\n      dup1\n      swap2\n      sub\n      swap1\n      revert\n    tag_76:\n        /* \"challenge_2.sol\":441:442  4 */\n      0x04\n        /* \"challenge_2.sol\":419:431  participants */\n      0x02\n        /* \"challenge_2.sol\":419:438  participants.length */\n      dup1\n      sload\n      swap1\n      pop\n        /* \"challenge_2.sol\":419:442  participants.length < 4 */\n      lt\n        /* \"challenge_2.sol\":411:458  require(participants.length < 4, \"game ended!\") */\n      tag_79\n      jumpi\n      mload(0x40)\n      0x08c379a000000000000000000000000000000000000000000000000000000000\n      dup2\n      mstore\n      0x04\n      add\n      tag_80\n      swap1\n      tag_81\n      jump\t// in\n    tag_80:\n      mload(0x40)\n      dup1\n      swap2\n      sub\n      swap1\n      revert\n    tag_79:\n        /* \"challenge_2.sol\":479:482  bid */\n      0x01\n        /* \"challenge_2.sol\":479:494  bid[msg.sender] */\n      0x00\n        /* \"challenge_2.sol\":483:493  msg.sender */\n      caller\n        /* \"challenge_2.sol\":479:494  bid[msg.sender] */\n      0xffffffffffffffffffffffffffffffffffffffff\n      and\n      0xffffffffffffffffffffffffffffffffffffffff\n      and\n      dup2\n      mstore\n      0x20\n      add\n      swap1\n      dup2\n      mstore\n      0x20\n      add\n      0x00\n      keccak256\n      0x00\n      swap1\n      sload\n      swap1\n      0x0100\n      exp\n      swap1\n      div\n      0xff\n      and\n        /* \"challenge_2.sol\":478:494  !bid[msg.sender] */\n      iszero\n        /* \"challenge_2.sol\":470:517  require(!bid[msg.sender], \"address already in\") */\n      tag_82\n      jumpi\n      mload(0x40)\n      0x08c379a000000000000000000000000000000000000000000000000000000000\n      dup2\n      mstore\n      0x04\n      add\n      tag_83\n      swap1\n      tag_84\n      jump\t// in\n    tag_83:\n      mload(0x40)\n      dup1\n      swap2\n      sub\n      swap1\n      revert\n    tag_82:\n        /* \"challenge_2.sol\":548:552  true */\n      0x01\n        /* \"challenge_2.sol\":530:533  bid */\n      dup1\n        /* \"challenge_2.sol\":530:545  bid[msg.sender] */\n      0x00\n        /* \"challenge_2.sol\":534:544  msg.sender */\n      caller\n        /* \"challenge_2.sol\":530:545  bid[msg.sender] */\n      0xffffffffffffffffffffffffffffffffffffffff\n      and\n      0xffffffffffffffffffffffffffffffffffffffff\n      and\n      dup2\n      mstore\n      0x20\n      add\n      swap1\n      dup2\n      mstore\n      0x20\n      add\n      0x00\n      keccak256\n      0x00\n        /* \"challenge_2.sol\":530:552  bid[msg.sender] = true */\n      0x0100\n      exp\n      dup2\n      sload\n      dup2\n      0xff\n      mul\n      not\n      and\n      swap1\n      dup4\n      iszero\n      iszero\n      mul\n      or\n      swap1\n      sstore\n      pop\n        /* \"challenge_2.sol\":565:577  participants */\n      0x02\n        /* \"challenge_2.sol\":583:593  msg.sender */\n      caller\n        /* \"challenge_2.sol\":565:594  participants.push(msg.sender) */\n      swap1\n      dup1\n      0x01\n      dup2\n      sload\n      add\n      dup1\n      dup3\n      sstore\n      dup1\n      swap2\n      pop\n      pop\n      0x01\n      swap1\n      sub\n      swap1\n      0x00\n      mstore\n      keccak256(0x00, 0x20)\n      add\n      0x00\n      swap1\n      swap2\n      swap1\n      swap2\n      swap1\n      swap2\n      0x0100\n      exp\n      dup2\n      sload\n      dup2\n      0xffffffffffffffffffffffffffffffffffffffff\n      mul\n      not\n      and\n      swap1\n      dup4\n      0xffffffffffffffffffffffffffffffffffffffff\n      and\n      mul\n      or\n      swap1\n      sstore\n      pop\n        /* \"challenge_2.sol\":296:602  function participate() payable external {... */\n      jump\t// out\n        /* \"challenge_2.sol\":214:235  address public winner */\n    tag_50:\n      0x03\n      0x00\n      swap1\n      sload\n      swap1\n      0x0100\n      exp\n      swap1\n      div\n      0xffffffffffffffffffffffffffffffffffffffff\n      and\n      dup2\n      jump\t// out\n    tag_74:\n      pop\n      dup1\n      sload\n      0x00\n      dup3\n      sstore\n      swap1\n      0x00\n      mstore\n      keccak256(0x00, 0x20)\n      swap1\n      dup2\n      add\n      swap1\n      tag_87\n      swap2\n      swap1\n      tag_88\n      jump\t// in\n    tag_87:\n      pop\n      jump\t// out\n    tag_88:\n    tag_89:\n      dup1\n      dup3\n      gt\n      iszero\n      tag_90\n      jumpi\n      0x00\n      dup2\n      0x00\n      swap1\n      sstore\n      pop\n      0x01\n      add\n      jump(tag_89)\n    tag_90:\n      pop\n      swap1\n      jump\t// out\n        /* \"#utility.yul\":7:176   */\n    tag_91:\n        /* \"#utility.yul\":91:102   */\n      0x00\n        /* \"#utility.yul\":125:131   */\n      dup3\n        /* \"#utility.yul\":120:123   */\n      dup3\n        /* \"#utility.yul\":113:132   */\n      mstore\n        /* \"#utility.yul\":165:169   */\n      0x20\n        /* \"#utility.yul\":160:163   */\n      dup3\n        /* \"#utility.yul\":156:170   */\n      add\n        /* \"#utility.yul\":141:170   */\n      swap1\n      pop\n        /* \"#utility.yul\":7:176   */\n      swap3\n      swap2\n      pop\n      pop\n      jump\t// out\n        /* \"#utility.yul\":182:353   */\n    tag_92:\n        /* \"#utility.yul\":322:345   */\n      0x77696e6e657220616c72656164792063686f73656e0000000000000000000000\n        /* \"#utility.yul\":318:319   */\n      0x00\n        /* \"#utility.yul\":310:316   */\n      dup3\n        /* \"#utility.yul\":306:320   */\n      add\n        /* \"#utility.yul\":299:346   */\n      mstore\n        /* \"#utility.yul\":182:353   */\n      pop\n      jump\t// out\n        /* \"#utility.yul\":359:725   */\n    tag_93:\n        /* \"#utility.yul\":501:504   */\n      0x00\n        /* \"#utility.yul\":522:589   */\n      tag_126\n        /* \"#utility.yul\":586:588   */\n      0x15\n        /* \"#utility.yul\":581:584   */\n      dup4\n        /* \"#utility.yul\":522:589   */\n      tag_91\n      jump\t// in\n    tag_126:\n        /* \"#utility.yul\":515:589   */\n      swap2\n      pop\n        /* \"#utility.yul\":598:691   */\n      tag_127\n        /* \"#utility.yul\":687:690   */\n      dup3\n        /* \"#utility.yul\":598:691   */\n      tag_92\n      jump\t// in\n    tag_127:\n        /* \"#utility.yul\":716:718   */\n      0x20\n        /* \"#utility.yul\":711:714   */\n      dup3\n        /* \"#utility.yul\":707:719   */\n      add\n        /* \"#utility.yul\":700:719   */\n      swap1\n      pop\n        /* \"#utility.yul\":359:725   */\n      swap2\n      swap1\n      pop\n      jump\t// out\n        /* \"#utility.yul\":731:1150   */\n    tag_13:\n        /* \"#utility.yul\":897:901   */\n      0x00\n        /* \"#utility.yul\":935:937   */\n      0x20\n        /* \"#utility.yul\":924:933   */\n      dup3\n        /* \"#utility.yul\":920:938   */\n      add\n        /* \"#utility.yul\":912:938   */\n      swap1\n      pop\n        /* \"#utility.yul\":984:993   */\n      dup2\n        /* \"#utility.yul\":978:982   */\n      dup2\n        /* \"#utility.yul\":974:994   */\n      sub\n        /* \"#utility.yul\":970:971   */\n      0x00\n        /* \"#utility.yul\":959:968   */\n      dup4\n        /* \"#utility.yul\":955:972   */\n      add\n        /* \"#utility.yul\":948:995   */\n      mstore\n        /* \"#utility.yul\":1012:1143   */\n      tag_129\n        /* \"#utility.yul\":1138:1142   */\n      dup2\n        /* \"#utility.yul\":1012:1143   */\n      tag_93\n      jump\t// in\n    tag_129:\n        /* \"#utility.yul\":1004:1143   */\n      swap1\n      pop\n        /* \"#utility.yul\":731:1150   */\n      swap2\n      swap1\n      pop\n      jump\t// out\n        /* \"#utility.yul\":1156:1326   */\n    tag_94:\n        /* \"#utility.yul\":1296:1318   */\n      0x6f6e6c792068756d616e20657865637574696f6e000000000000000000000000\n        /* \"#utility.yul\":1292:1293   */\n      0x00\n        /* \"#utility.yul\":1284:1290   */\n      dup3\n        /* \"#utility.yul\":1280:1294   */\n      add\n        /* \"#utility.yul\":1273:1319   */\n      mstore\n        /* \"#utility.yul\":1156:1326   */\n      pop\n      jump\t// out\n        /* \"#utility.yul\":1332:1698   */\n    tag_95:\n        /* \"#utility.yul\":1474:1477   */\n      0x00\n        /* \"#utility.yul\":1495:1562   */\n      tag_132\n        /* \"#utility.yul\":1559:1561   */\n      0x14\n        /* \"#utility.yul\":1554:1557   */\n      dup4\n        /* \"#utility.yul\":1495:1562   */\n      tag_91\n      jump\t// in\n    tag_132:\n        /* \"#utility.yul\":1488:1562   */\n      swap2\n      pop\n        /* \"#utility.yul\":1571:1664   */\n      tag_133\n        /* \"#utility.yul\":1660:1663   */\n      dup3\n        /* \"#utility.yul\":1571:1664   */\n      tag_94\n      jump\t// in\n    tag_133:\n        /* \"#utility.yul\":1689:1691   */\n      0x20\n        /* \"#utility.yul\":1684:1687   */\n      dup3\n        /* \"#utility.yul\":1680:1692   */\n      add\n        /* \"#utility.yul\":1673:1692   */\n      swap1\n      pop\n        /* \"#utility.yul\":1332:1698   */\n      swap2\n      swap1\n      pop\n      jump\t// out\n        /* \"#utility.yul\":1704:2123   */\n    tag_16:\n        /* \"#utility.yul\":1870:1874   */\n      0x00\n        /* \"#utility.yul\":1908:1910   */\n      0x20\n        /* \"#utility.yul\":1897:1906   */\n      dup3\n        /* \"#utility.yul\":1893:1911   */\n      add\n        /* \"#utility.yul\":1885:1911   */\n      swap1\n      pop\n        /* \"#utility.yul\":1957:1966   */\n      dup2\n        /* \"#utility.yul\":1951:1955   */\n      dup2\n        /* \"#utility.yul\":1947:1967   */\n      sub\n        /* \"#utility.yul\":1943:1944   */\n      0x00\n        /* \"#utility.yul\":1932:1941   */\n      dup4\n        /* \"#utility.yul\":1928:1945   */\n      add\n        /* \"#utility.yul\":1921:1968   */\n      mstore\n        /* \"#utility.yul\":1985:2116   */\n      tag_135\n        /* \"#utility.yul\":2111:2115   */\n      dup2\n        /* \"#utility.yul\":1985:2116   */\n      tag_95\n      jump\t// in\n    tag_135:\n        /* \"#utility.yul\":1977:2116   */\n      swap1\n      pop\n        /* \"#utility.yul\":1704:2123   */\n      swap2\n      swap1\n      pop\n      jump\t// out\n        /* \"#utility.yul\":2129:2206   */\n    tag_96:\n        /* \"#utility.yul\":2166:2173   */\n      0x00\n        /* \"#utility.yul\":2195:2200   */\n      dup2\n        /* \"#utility.yul\":2184:2200   */\n      swap1\n      pop\n        /* \"#utility.yul\":2129:2206   */\n      swap2\n      swap1\n      pop\n      jump\t// out\n        /* \"#utility.yul\":2212:2392   */\n    tag_97:\n        /* \"#utility.yul\":2260:2337   */\n      0x4e487b7100000000000000000000000000000000000000000000000000000000\n        /* \"#utility.yul\":2257:2258   */\n      0x00\n        /* \"#utility.yul\":2250:2338   */\n      mstore\n        /* \"#utility.yul\":2357:2361   */\n      0x12\n        /* \"#utility.yul\":2354:2355   */\n      0x04\n        /* \"#utility.yul\":2347:2362   */\n      mstore\n        /* \"#utility.yul\":2381:2385   */\n      0x24\n        /* \"#utility.yul\":2378:2379   */\n      0x00\n        /* \"#utility.yul\":2371:2386   */\n      revert\n        /* \"#utility.yul\":2398:2574   */\n    tag_19:\n        /* \"#utility.yul\":2430:2431   */\n      0x00\n        /* \"#utility.yul\":2447:2467   */\n      tag_139\n        /* \"#utility.yul\":2465:2466   */\n      dup3\n        /* \"#utility.yul\":2447:2467   */\n      tag_96\n      jump\t// in\n    tag_139:\n        /* \"#utility.yul\":2442:2467   */\n      swap2\n      pop\n        /* \"#utility.yul\":2481:2501   */\n      tag_140\n        /* \"#utility.yul\":2499:2500   */\n      dup4\n        /* \"#utility.yul\":2481:2501   */\n      tag_96\n      jump\t// in\n    tag_140:\n        /* \"#utility.yul\":2476:2501   */\n      swap3\n      pop\n        /* \"#utility.yul\":2520:2521   */\n      dup3\n        /* \"#utility.yul\":2510:2545   */\n      tag_141\n      jumpi\n        /* \"#utility.yul\":2525:2543   */\n      tag_142\n      tag_97\n      jump\t// in\n    tag_142:\n        /* \"#utility.yul\":2510:2545   */\n    tag_141:\n        /* \"#utility.yul\":2566:2567   */\n      dup3\n        /* \"#utility.yul\":2563:2564   */\n      dup3\n        /* \"#utility.yul\":2559:2568   */\n      mod\n        /* \"#utility.yul\":2554:2568   */\n      swap1\n      pop\n        /* \"#utility.yul\":2398:2574   */\n      swap3\n      swap2\n      pop\n      pop\n      jump\t// out\n        /* \"#utility.yul\":2580:2760   */\n    tag_22:\n        /* \"#utility.yul\":2628:2705   */\n      0x4e487b7100000000000000000000000000000000000000000000000000000000\n        /* \"#utility.yul\":2625:2626   */\n      0x00\n        /* \"#utility.yul\":2618:2706   */\n      mstore\n        /* \"#utility.yul\":2725:2729   */\n      0x32\n        /* \"#utility.yul\":2722:2723   */\n      0x04\n        /* \"#utility.yul\":2715:2730   */\n      mstore\n        /* \"#utility.yul\":2749:2753   */\n      0x24\n        /* \"#utility.yul\":2746:2747   */\n      0x00\n        /* \"#utility.yul\":2739:2754   */\n      revert\n        /* \"#utility.yul\":2847:2964   */\n    tag_99:\n        /* \"#utility.yul\":2956:2957   */\n      0x00\n        /* \"#utility.yul\":2953:2954   */\n      dup1\n        /* \"#utility.yul\":2946:2958   */\n      revert\n        /* \"#utility.yul\":3093:3215   */\n    tag_101:\n        /* \"#utility.yul\":3166:3190   */\n      tag_148\n        /* \"#utility.yul\":3184:3189   */\n      dup2\n        /* \"#utility.yul\":3166:3190   */\n      tag_96\n      jump\t// in\n    tag_148:\n        /* \"#utility.yul\":3159:3164   */\n      dup2\n        /* \"#utility.yul\":3156:3191   */\n      eq\n        /* \"#utility.yul\":3146:3209   */\n      tag_149\n      jumpi\n        /* \"#utility.yul\":3205:3206   */\n      0x00\n        /* \"#utility.yul\":3202:3203   */\n      dup1\n        /* \"#utility.yul\":3195:3207   */\n      revert\n        /* \"#utility.yul\":3146:3209   */\n    tag_149:\n        /* \"#utility.yul\":3093:3215   */\n      pop\n      jump\t// out\n        /* \"#utility.yul\":3221:3360   */\n    tag_102:\n        /* \"#utility.yul\":3267:3272   */\n      0x00\n        /* \"#utility.yul\":3305:3311   */\n      dup2\n        /* \"#utility.yul\":3292:3312   */\n      calldataload\n        /* \"#utility.yul\":3283:3312   */\n      swap1\n      pop\n        /* \"#utility.yul\":3321:3354   */\n      tag_151\n        /* \"#utility.yul\":3348:3353   */\n      dup2\n        /* \"#utility.yul\":3321:3354   */\n      tag_101\n      jump\t// in\n    tag_151:\n        /* \"#utility.yul\":3221:3360   */\n      swap3\n      swap2\n      pop\n      pop\n      jump\t// out\n        /* \"#utility.yul\":3366:3695   */\n    tag_27:\n        /* \"#utility.yul\":3425:3431   */\n      0x00\n        /* \"#utility.yul\":3474:3476   */\n      0x20\n        /* \"#utility.yul\":3462:3471   */\n      dup3\n        /* \"#utility.yul\":3453:3460   */\n      dup5\n        /* \"#utility.yul\":3449:3472   */\n      sub\n        /* \"#utility.yul\":3445:3477   */\n      slt\n        /* \"#utility.yul\":3442:3561   */\n      iszero\n      tag_153\n      jumpi\n        /* \"#utility.yul\":3480:3559   */\n      tag_154\n      tag_99\n      jump\t// in\n    tag_154:\n        /* \"#utility.yul\":3442:3561   */\n    tag_153:\n        /* \"#utility.yul\":3600:3601   */\n      0x00\n        /* \"#utility.yul\":3625:3678   */\n      tag_155\n        /* \"#utility.yul\":3670:3677   */\n      dup5\n        /* \"#utility.yul\":3661:3667   */\n      dup3\n        /* \"#utility.yul\":3650:3659   */\n      dup6\n        /* \"#utility.yul\":3646:3668   */\n      add\n        /* \"#utility.yul\":3625:3678   */\n      tag_102\n      jump\t// in\n    tag_155:\n        /* \"#utility.yul\":3615:3678   */\n      swap2\n      pop\n        /* \"#utility.yul\":3571:3688   */\n      pop\n        /* \"#utility.yul\":3366:3695   */\n      swap3\n      swap2\n      pop\n      pop\n      jump\t// out\n        /* \"#utility.yul\":3701:3827   */\n    tag_103:\n        /* \"#utility.yul\":3738:3745   */\n      0x00\n        /* \"#utility.yul\":3778:3820   */\n      0xffffffffffffffffffffffffffffffffffffffff\n        /* \"#utility.yul\":3771:3776   */\n      dup3\n        /* \"#utility.yul\":3767:3821   */\n      and\n        /* \"#utility.yul\":3756:3821   */\n      swap1\n      pop\n        /* \"#utility.yul\":3701:3827   */\n      swap2\n      swap1\n      pop\n      jump\t// out\n        /* \"#utility.yul\":3833:3929   */\n    tag_104:\n        /* \"#utility.yul\":3870:3877   */\n      0x00\n        /* \"#utility.yul\":3899:3923   */\n      tag_158\n        /* \"#utility.yul\":3917:3922   */\n      dup3\n        /* \"#utility.yul\":3899:3923   */\n      tag_103\n      jump\t// in\n    tag_158:\n        /* \"#utility.yul\":3888:3923   */\n      swap1\n      pop\n        /* \"#utility.yul\":3833:3929   */\n      swap2\n      swap1\n      pop\n      jump\t// out\n        /* \"#utility.yul\":3935:4053   */\n    tag_105:\n        /* \"#utility.yul\":4022:4046   */\n      tag_160\n        /* \"#utility.yul\":4040:4045   */\n      dup2\n        /* \"#utility.yul\":4022:4046   */\n      tag_104\n      jump\t// in\n    tag_160:\n        /* \"#utility.yul\":4017:4020   */\n      dup3\n        /* \"#utility.yul\":4010:4047   */\n      mstore\n        /* \"#utility.yul\":3935:4053   */\n      pop\n      pop\n      jump\t// out\n        /* \"#utility.yul\":4059:4281   */\n    tag_30:\n        /* \"#utility.yul\":4152:4156   */\n      0x00\n        /* \"#utility.yul\":4190:4192   */\n      0x20\n        /* \"#utility.yul\":4179:4188   */\n      dup3\n        /* \"#utility.yul\":4175:4193   */\n      add\n        /* \"#utility.yul\":4167:4193   */\n      swap1\n      pop\n        /* \"#utility.yul\":4203:4274   */\n      tag_162\n        /* \"#utility.yul\":4271:4272   */\n      0x00\n        /* \"#utility.yul\":4260:4269   */\n      dup4\n        /* \"#utility.yul\":4256:4273   */\n      add\n        /* \"#utility.yul\":4247:4253   */\n      dup5\n        /* \"#utility.yul\":4203:4274   */\n      tag_105\n      jump\t// in\n    tag_162:\n        /* \"#utility.yul\":4059:4281   */\n      swap3\n      swap2\n      pop\n      pop\n      jump\t// out\n        /* \"#utility.yul\":4287:4409   */\n    tag_106:\n        /* \"#utility.yul\":4360:4384   */\n      tag_164\n        /* \"#utility.yul\":4378:4383   */\n      dup2\n        /* \"#utility.yul\":4360:4384   */\n      tag_104\n      jump\t// in\n    tag_164:\n        /* \"#utility.yul\":4353:4358   */\n      dup2\n        /* \"#utility.yul\":4350:4385   */\n      eq\n        /* \"#utility.yul\":4340:4403   */\n      tag_165\n      jumpi\n        /* \"#utility.yul\":4399:4400   */\n      0x00\n        /* \"#utility.yul\":4396:4397   */\n      dup1\n        /* \"#utility.yul\":4389:4401   */\n      revert\n        /* \"#utility.yul\":4340:4403   */\n    tag_165:\n        /* \"#utility.yul\":4287:4409   */\n      pop\n      jump\t// out\n        /* \"#utility.yul\":4415:4554   */\n    tag_107:\n        /* \"#utility.yul\":4461:4466   */\n      0x00\n        /* \"#utility.yul\":4499:4505   */\n      dup2\n        /* \"#utility.yul\":4486:4506   */\n      calldataload\n        /* \"#utility.yul\":4477:4506   */\n      swap1\n      pop\n        /* \"#utility.yul\":4515:4548   */\n      tag_167\n        /* \"#utility.yul\":4542:4547   */\n      dup2\n        /* \"#utility.yul\":4515:4548   */\n      tag_106\n      jump\t// in\n    tag_167:\n        /* \"#utility.yul\":4415:4554   */\n      swap3\n      swap2\n      pop\n      pop\n      jump\t// out\n        /* \"#utility.yul\":4560:4889   */\n    tag_34:\n        /* \"#utility.yul\":4619:4625   */\n      0x00\n        /* \"#utility.yul\":4668:4670   */\n      0x20\n        /* \"#utility.yul\":4656:4665   */\n      dup3\n        /* \"#utility.yul\":4647:4654   */\n      dup5\n        /* \"#utility.yul\":4643:4666   */\n      sub\n        /* \"#utility.yul\":4639:4671   */\n      slt\n        /* \"#utility.yul\":4636:4755   */\n      iszero\n      tag_169\n      jumpi\n        /* \"#utility.yul\":4674:4753   */\n      tag_170\n      tag_99\n      jump\t// in\n    tag_170:\n        /* \"#utility.yul\":4636:4755   */\n    tag_169:\n        /* \"#utility.yul\":4794:4795   */\n      0x00\n        /* \"#utility.yul\":4819:4872   */\n      tag_171\n        /* \"#utility.yul\":4864:4871   */\n      dup5\n        /* \"#utility.yul\":4855:4861   */\n      dup3\n        /* \"#utility.yul\":4844:4853   */\n      dup6\n        /* \"#utility.yul\":4840:4862   */\n      add\n        /* \"#utility.yul\":4819:4872   */\n      tag_107\n      jump\t// in\n    tag_171:\n        /* \"#utility.yul\":4809:4872   */\n      swap2\n      pop\n        /* \"#utility.yul\":4765:4882   */\n      pop\n        /* \"#utility.yul\":4560:4889   */\n      swap3\n      swap2\n      pop\n      pop\n      jump\t// out\n        /* \"#utility.yul\":4895:4985   */\n    tag_108:\n        /* \"#utility.yul\":4929:4936   */\n      0x00\n        /* \"#utility.yul\":4972:4977   */\n      dup2\n        /* \"#utility.yul\":4965:4978   */\n      iszero\n        /* \"#utility.yul\":4958:4979   */\n      iszero\n        /* \"#utility.yul\":4947:4979   */\n      swap1\n      pop\n        /* \"#utility.yul\":4895:4985   */\n      swap2\n      swap1\n      pop\n      jump\t// out\n        /* \"#utility.yul\":4991:5100   */\n    tag_109:\n        /* \"#utility.yul\":5072:5093   */\n      tag_174\n        /* \"#utility.yul\":5087:5092   */\n      dup2\n        /* \"#utility.yul\":5072:5093   */\n      tag_108\n      jump\t// in\n    tag_174:\n        /* \"#utility.yul\":5067:5070   */\n      dup3\n        /* \"#utility.yul\":5060:5094   */\n      mstore\n        /* \"#utility.yul\":4991:5100   */\n      pop\n      pop\n      jump\t// out\n        /* \"#utility.yul\":5106:5316   */\n    tag_37:\n        /* \"#utility.yul\":5193:5197   */\n      0x00\n        /* \"#utility.yul\":5231:5233   */\n      0x20\n        /* \"#utility.yul\":5220:5229   */\n      dup3\n        /* \"#utility.yul\":5216:5234   */\n      add\n        /* \"#utility.yul\":5208:5234   */\n      swap1\n      pop\n        /* \"#utility.yul\":5244:5309   */\n      tag_176\n        /* \"#utility.yul\":5306:5307   */\n      0x00\n        /* \"#utility.yul\":5295:5304   */\n      dup4\n        /* \"#utility.yul\":5291:5308   */\n      add\n        /* \"#utility.yul\":5282:5288   */\n      dup5\n        /* \"#utility.yul\":5244:5309   */\n      tag_109\n      jump\t// in\n    tag_176:\n        /* \"#utility.yul\":5106:5316   */\n      swap3\n      swap2\n      pop\n      pop\n      jump\t// out\n        /* \"#utility.yul\":5322:5440   */\n    tag_110:\n        /* \"#utility.yul\":5409:5433   */\n      tag_178\n        /* \"#utility.yul\":5427:5432   */\n      dup2\n        /* \"#utility.yul\":5409:5433   */\n      tag_96\n      jump\t// in\n    tag_178:\n        /* \"#utility.yul\":5404:5407   */\n      dup3\n        /* \"#utility.yul\":5397:5434   */\n      mstore\n        /* \"#utility.yul\":5322:5440   */\n      pop\n      pop\n      jump\t// out\n        /* \"#utility.yul\":5446:5668   */\n    tag_42:\n        /* \"#utility.yul\":5539:5543   */\n      0x00\n        /* \"#utility.yul\":5577:5579   */\n      0x20\n        /* \"#utility.yul\":5566:5575   */\n      dup3\n        /* \"#utility.yul\":5562:5580   */\n      add\n        /* \"#utility.yul\":5554:5580   */\n      swap1\n      pop\n        /* \"#utility.yul\":5590:5661   */\n      tag_180\n        /* \"#utility.yul\":5658:5659   */\n      0x00\n        /* \"#utility.yul\":5647:5656   */\n      dup4\n        /* \"#utility.yul\":5643:5660   */\n      add\n        /* \"#utility.yul\":5634:5640   */\n      dup5\n        /* \"#utility.yul\":5590:5661   */\n      tag_110\n      jump\t// in\n    tag_180:\n        /* \"#utility.yul\":5446:5668   */\n      swap3\n      swap2\n      pop\n      pop\n      jump\t// out\n        /* \"#utility.yul\":5674:5835   */\n    tag_111:\n        /* \"#utility.yul\":5814:5827   */\n      0x6e6f7420616c6c6f776564000000000000000000000000000000000000000000\n        /* \"#utility.yul\":5810:5811   */\n      0x00\n        /* \"#utility.yul\":5802:5808   */\n      dup3\n        /* \"#utility.yul\":5798:5812   */\n      add\n        /* \"#utility.yul\":5791:5828   */\n      mstore\n        /* \"#utility.yul\":5674:5835   */\n      pop\n      jump\t// out\n        /* \"#utility.yul\":5841:6207   */\n    tag_112:\n        /* \"#utility.yul\":5983:5986   */\n      0x00\n        /* \"#utility.yul\":6004:6071   */\n      tag_183\n        /* \"#utility.yul\":6068:6070   */\n      0x0b\n        /* \"#utility.yul\":6063:6066   */\n      dup4\n        /* \"#utility.yul\":6004:6071   */\n      tag_91\n      jump\t// in\n    tag_183:\n        /* \"#utility.yul\":5997:6071   */\n      swap2\n      pop\n        /* \"#utility.yul\":6080:6173   */\n      tag_184\n        /* \"#utility.yul\":6169:6172   */\n      dup3\n        /* \"#utility.yul\":6080:6173   */\n      tag_111\n      jump\t// in\n    tag_184:\n        /* \"#utility.yul\":6198:6200   */\n      0x20\n        /* \"#utility.yul\":6193:6196   */\n      dup3\n        /* \"#utility.yul\":6189:6201   */\n      add\n        /* \"#utility.yul\":6182:6201   */\n      swap1\n      pop\n        /* \"#utility.yul\":5841:6207   */\n      swap2\n      swap1\n      pop\n      jump\t// out\n        /* \"#utility.yul\":6213:6632   */\n    tag_57:\n        /* \"#utility.yul\":6379:6383   */\n      0x00\n        /* \"#utility.yul\":6417:6419   */\n      0x20\n        /* \"#utility.yul\":6406:6415   */\n      dup3\n        /* \"#utility.yul\":6402:6420   */\n      add\n        /* \"#utility.yul\":6394:6420   */\n      swap1\n      pop\n        /* \"#utility.yul\":6466:6475   */\n      dup2\n        /* \"#utility.yul\":6460:6464   */\n      dup2\n        /* \"#utility.yul\":6456:6476   */\n      sub\n        /* \"#utility.yul\":6452:6453   */\n      0x00\n        /* \"#utility.yul\":6441:6450   */\n      dup4\n        /* \"#utility.yul\":6437:6454   */\n      add\n        /* \"#utility.yul\":6430:6477   */\n      mstore\n        /* \"#utility.yul\":6494:6625   */\n      tag_186\n        /* \"#utility.yul\":6620:6624   */\n      dup2\n        /* \"#utility.yul\":6494:6625   */\n      tag_112\n      jump\t// in\n    tag_186:\n        /* \"#utility.yul\":6486:6625   */\n      swap1\n      pop\n        /* \"#utility.yul\":6213:6632   */\n      swap2\n      swap1\n      pop\n      jump\t// out\n        /* \"#utility.yul\":6638:6818   */\n    tag_113:\n        /* \"#utility.yul\":6686:6763   */\n      0x4e487b7100000000000000000000000000000000000000000000000000000000\n        /* \"#utility.yul\":6683:6684   */\n      0x00\n        /* \"#utility.yul\":6676:6764   */\n      mstore\n        /* \"#utility.yul\":6783:6787   */\n      0x11\n        /* \"#utility.yul\":6780:6781   */\n      0x04\n        /* \"#utility.yul\":6773:6788   */\n      mstore\n        /* \"#utility.yul\":6807:6811   */\n      0x24\n        /* \"#utility.yul\":6804:6805   */\n      0x00\n        /* \"#utility.yul\":6797:6812   */\n      revert\n        /* \"#utility.yul\":6824:7018   */\n    tag_59:\n        /* \"#utility.yul\":6864:6868   */\n      0x00\n        /* \"#utility.yul\":6884:6904   */\n      tag_189\n        /* \"#utility.yul\":6902:6903   */\n      dup3\n        /* \"#utility.yul\":6884:6904   */\n      tag_96\n      jump\t// in\n    tag_189:\n        /* \"#utility.yul\":6879:6904   */\n      swap2\n      pop\n        /* \"#utility.yul\":6918:6938   */\n      tag_190\n        /* \"#utility.yul\":6936:6937   */\n      dup4\n        /* \"#utility.yul\":6918:6938   */\n      tag_96\n      jump\t// in\n    tag_190:\n        /* \"#utility.yul\":6913:6938   */\n      swap3\n      pop\n        /* \"#utility.yul\":6962:6963   */\n      dup3\n        /* \"#utility.yul\":6959:6960   */\n      dup3\n        /* \"#utility.yul\":6955:6964   */\n      sub\n        /* \"#utility.yul\":6947:6964   */\n      swap1\n      pop\n        /* \"#utility.yul\":6986:6987   */\n      dup2\n        /* \"#utility.yul\":6980:6984   */\n      dup2\n        /* \"#utility.yul\":6977:6988   */\n      gt\n        /* \"#utility.yul\":6974:7011   */\n      iszero\n      tag_191\n      jumpi\n        /* \"#utility.yul\":6991:7009   */\n      tag_192\n      tag_113\n      jump\t// in\n    tag_192:\n        /* \"#utility.yul\":6974:7011   */\n    tag_191:\n        /* \"#utility.yul\":6824:7018   */\n      swap3\n      swap2\n      pop\n      pop\n      jump\t// out\n        /* \"#utility.yul\":7024:7186   */\n    tag_114:\n        /* \"#utility.yul\":7164:7178   */\n      0x74696d65206973206f7665720000000000000000000000000000000000000000\n        /* \"#utility.yul\":7160:7161   */\n      0x00\n        /* \"#utility.yul\":7152:7158   */\n      dup3\n        /* \"#utility.yul\":7148:7162   */\n      add\n        /* \"#utility.yul\":7141:7179   */\n      mstore\n        /* \"#utility.yul\":7024:7186   */\n      pop\n      jump\t// out\n        /* \"#utility.yul\":7192:7558   */\n    tag_115:\n        /* \"#utility.yul\":7334:7337   */\n      0x00\n        /* \"#utility.yul\":7355:7422   */\n      tag_195\n        /* \"#utility.yul\":7419:7421   */\n      0x0c\n        /* \"#utility.yul\":7414:7417   */\n      dup4\n        /* \"#utility.yul\":7355:7422   */\n      tag_91\n      jump\t// in\n    tag_195:\n        /* \"#utility.yul\":7348:7422   */\n      swap2\n      pop\n        /* \"#utility.yul\":7431:7524   */\n      tag_196\n        /* \"#utility.yul\":7520:7523   */\n      dup3\n        /* \"#utility.yul\":7431:7524   */\n      tag_114\n      jump\t// in\n    tag_196:\n        /* \"#utility.yul\":7549:7551   */\n      0x20\n        /* \"#utility.yul\":7544:7547   */\n      dup3\n        /* \"#utility.yul\":7540:7552   */\n      add\n        /* \"#utility.yul\":7533:7552   */\n      swap1\n      pop\n        /* \"#utility.yul\":7192:7558   */\n      swap2\n      swap1\n      pop\n      jump\t// out\n        /* \"#utility.yul\":7564:7983   */\n    tag_62:\n        /* \"#utility.yul\":7730:7734   */\n      0x00\n        /* \"#utility.yul\":7768:7770   */\n      0x20\n        /* \"#utility.yul\":7757:7766   */\n      dup3\n        /* \"#utility.yul\":7753:7771   */\n      add\n        /* \"#utility.yul\":7745:7771   */\n      swap1\n      pop\n        /* \"#utility.yul\":7817:7826   */\n      dup2\n        /* \"#utility.yul\":7811:7815   */\n      dup2\n        /* \"#utility.yul\":7807:7827   */\n      sub\n        /* \"#utility.yul\":7803:7804   */\n      0x00\n        /* \"#utility.yul\":7792:7801   */\n      dup4\n        /* \"#utility.yul\":7788:7805   */\n      add\n        /* \"#utility.yul\":7781:7828   */\n      mstore\n        /* \"#utility.yul\":7845:7976   */\n      tag_198\n        /* \"#utility.yul\":7971:7975   */\n      dup2\n        /* \"#utility.yul\":7845:7976   */\n      tag_115\n      jump\t// in\n    tag_198:\n        /* \"#utility.yul\":7837:7976   */\n      swap1\n      pop\n        /* \"#utility.yul\":7564:7983   */\n      swap2\n      swap1\n      pop\n      jump\t// out\n        /* \"#utility.yul\":7989:8222   */\n    tag_72:\n        /* \"#utility.yul\":8028:8031   */\n      0x00\n        /* \"#utility.yul\":8051:8075   */\n      tag_200\n        /* \"#utility.yul\":8069:8074   */\n      dup3\n        /* \"#utility.yul\":8051:8075   */\n      tag_96\n      jump\t// in\n    tag_200:\n        /* \"#utility.yul\":8042:8075   */\n      swap2\n      pop\n        /* \"#utility.yul\":8097:8163   */\n      0xffffffffffffffffffffffffffffffffffffffffffffffffffffffffffffffff\n        /* \"#utility.yul\":8090:8095   */\n      dup3\n        /* \"#utility.yul\":8087:8164   */\n      sub\n        /* \"#utility.yul\":8084:8187   */\n      tag_201\n      jumpi\n        /* \"#utility.yul\":8167:8185   */\n      tag_202\n      tag_113\n      jump\t// in\n    tag_202:\n        /* \"#utility.yul\":8084:8187   */\n    tag_201:\n        /* \"#utility.yul\":8214:8215   */\n      0x01\n        /* \"#utility.yul\":8207:8212   */\n      dup3\n        /* \"#utility.yul\":8203:8216   */\n      add\n        /* \"#utility.yul\":8196:8216   */\n      swap1\n      pop\n        /* \"#utility.yul\":7989:8222   */\n      swap2\n      swap1\n      pop\n      jump\t// out\n        /* \"#utility.yul\":8228:8394   */\n    tag_116:\n        /* \"#utility.yul\":8368:8386   */\n      0x77726f6e672062696420616d6f756e7400000000000000000000000000000000\n        /* \"#utility.yul\":8364:8365   */\n      0x00\n        /* \"#utility.yul\":8356:8362   */\n      dup3\n        /* \"#utility.yul\":8352:8366   */\n      add\n        /* \"#utility.yul\":8345:8387   */\n      mstore\n        /* \"#utility.yul\":8228:8394   */\n      pop\n      jump\t// out\n        /* \"#utility.yul\":8400:8766   */\n    tag_117:\n        /* \"#utility.yul\":8542:8545   */\n      0x00\n        /* \"#utility.yul\":8563:8630   */\n      tag_205\n        /* \"#utility.yul\":8627:8629   */\n      0x10\n        /* \"#utility.yul\":8622:8625   */\n      dup4\n        /* \"#utility.yul\":8563:8630   */\n      tag_91\n      jump\t// in\n    tag_205:\n        /* \"#utility.yul\":8556:8630   */\n      swap2\n      pop\n        /* \"#utility.yul\":8639:8732   */\n      tag_206\n        /* \"#utility.yul\":8728:8731   */\n      dup3\n        /* \"#utility.yul\":8639:8732   */\n      tag_116\n      jump\t// in\n    tag_206:\n        /* \"#utility.yul\":8757:8759   */\n      0x20\n        /* \"#utility.yul\":8752:8755   */\n      dup3\n        /* \"#utility.yul\":8748:8760   */\n      add\n        /* \"#utility.yul\":8741:8760   */\n      swap1\n      pop\n        /* \"#utility.yul\":8400:8766   */\n      swap2\n      swap1\n      pop\n      jump\t// out\n        /* \"#utility.yul\":8772:9191   */\n    tag_78:\n        /* \"#utility.yul\":8938:8942   */\n      0x00\n        /* \"#utility.yul\":8976:8978   */\n      0x20\n        /* \"#utility.yul\":8965:8974   */\n      dup3\n        /* \"#utility.yul\":8961:8979   */\n      add\n        /* \"#utility.yul\":8953:8979   */\n      swap1\n      pop\n        /* \"#utility.yul\":9025:9034   */\n      dup2\n        /* \"#utility.yul\":9019:9023   */\n      dup2\n        /* \"#utility.yul\":9015:9035   */\n      sub\n        /* \"#utility.yul\":9011:9012   */\n      0x00\n        /* \"#utility.yul\":9000:9009   */\n      dup4\n        /* \"#utility.yul\":8996:9013   */\n      add\n        /* \"#utility.yul\":8989:9036   */\n      mstore\n        /* \"#utility.yul\":9053:9184   */\n      tag_208\n        /* \"#utility.yul\":9179:9183   */\n      dup2\n        /* \"#utility.yul\":9053:9184   */\n      tag_117\n      jump\t// in\n    tag_208:\n        /* \"#utility.yul\":9045:9184   */\n      swap1\n      pop\n        /* \"#utility.yul\":8772:9191   */\n      swap2\n      swap1\n      pop\n      jump\t// out\n        /* \"#utility.yul\":9197:9358   */\n    tag_118:\n        /* \"#utility.yul\":9337:9350   */\n      0x67616d6520656e64656421000000000000000000000000000000000000000000\n        /* \"#utility.yul\":9333:9334   */\n      0x00\n        /* \"#utility.yul\":9325:9331   */\n      dup3\n        /* \"#utility.yul\":9321:9335   */\n      add\n        /* \"#utility.yul\":9314:9351   */\n      mstore\n        /* \"#utility.yul\":9197:9358   */\n      pop\n      jump\t// out\n        /* \"#utility.yul\":9364:9730   */\n    tag_119:\n        /* \"#utility.yul\":9506:9509   */\n      0x00\n        /* \"#utility.yul\":9527:9594   */\n      tag_211\n        /* \"#utility.yul\":9591:9593   */\n      0x0b\n        /* \"#utility.yul\":9586:9589   */\n      dup4\n        /* \"#utility.yul\":9527:9594   */\n      tag_91\n      jump\t// in\n    tag_211:\n        /* \"#utility.yul\":9520:9594   */\n      swap2\n      pop\n        /* \"#utility.yul\":9603:9696   */\n      tag_212\n        /* \"#utility.yul\":9692:9695   */\n      dup3\n        /* \"#utility.yul\":9603:9696   */\n      tag_118\n      jump\t// in\n    tag_212:\n        /* \"#utility.yul\":9721:9723   */\n      0x20\n        /* \"#utility.yul\":9716:9719   */\n      dup3\n        /* \"#utility.yul\":9712:9724   */\n      add\n        /* \"#utility.yul\":9705:9724   */\n      swap1\n      pop\n        /* \"#utility.yul\":9364:9730   */\n      swap2\n      swap1\n      pop\n      jump\t// out\n        /* \"#utility.yul\":9736:10155   */\n    tag_81:\n        /* \"#utility.yul\":9902:9906   */\n      0x00\n        /* \"#utility.yul\":9940:9942   */\n      0x20\n        /* \"#utility.yul\":9929:9938   */\n      dup3\n        /* \"#utility.yul\":9925:9943   */\n      add\n        /* \"#utility.yul\":9917:9943   */\n      swap1\n      pop\n        /* \"#utility.yul\":9989:9998   */\n      dup2\n        /* \"#utility.yul\":9983:9987   */\n      dup2\n        /* \"#utility.yul\":9979:9999   */\n      sub\n        /* \"#utility.yul\":9975:9976   */\n      0x00\n        /* \"#utility.yul\":9964:9973   */\n      dup4\n        /* \"#utility.yul\":9960:9977   */\n      add\n        /* \"#utility.yul\":9953:10000   */\n      mstore\n        /* \"#utility.yul\":10017:10148   */\n      tag_214\n        /* \"#utility.yul\":10143:10147   */\n      dup2\n        /* \"#utility.yul\":10017:10148   */\n      tag_119\n      jump\t// in\n    tag_214:\n        /* \"#utility.yul\":10009:10148   */\n      swap1\n      pop\n        /* \"#utility.yul\":9736:10155   */\n      swap2\n      swap1\n      pop\n      jump\t// out\n        /* \"#utility.yul\":10161:10329   */\n    tag_120:\n        /* \"#utility.yul\":10301:10321   */\n      0x6164647265737320616c726561647920696e0000000000000000000000000000\n        /* \"#utility.yul\":10297:10298   */\n      0x00\n        /* \"#utility.yul\":10289:10295   */\n      dup3\n        /* \"#utility.yul\":10285:10299   */\n      add\n        /* \"#utility.yul\":10278:10322   */\n      mstore\n        /* \"#utility.yul\":10161:10329   */\n      pop\n      jump\t// out\n        /* \"#utility.yul\":10335:10701   */\n    tag_121:\n        /* \"#utility.yul\":10477:10480   */\n      0x00\n        /* \"#utility.yul\":10498:10565   */\n      tag_217\n        /* \"#utility.yul\":10562:10564   */\n      0x12\n        /* \"#utility.yul\":10557:10560   */\n      dup4\n        /* \"#utility.yul\":10498:10565   */\n      tag_91\n      jump\t// in\n    tag_217:\n        /* \"#utility.yul\":10491:10565   */\n      swap2\n      pop\n        /* \"#utility.yul\":10574:10667   */\n      tag_218\n        /* \"#utility.yul\":10663:10666   */\n      dup3\n        /* \"#utility.yul\":10574:10667   */\n      tag_120\n      jump\t// in\n    tag_218:\n        /* \"#utility.yul\":10692:10694   */\n      0x20\n        /* \"#utility.yul\":10687:10690   */\n      dup3\n        /* \"#utility.yul\":10683:10695   */\n      add\n        /* \"#utility.yul\":10676:10695   */\n      swap1\n      pop\n        /* \"#utility.yul\":10335:10701   */\n      swap2\n      swap1\n      pop\n      jump\t// out\n        /* \"#utility.yul\":10707:11126   */\n    tag_84:\n        /* \"#utility.yul\":10873:10877   */\n      0x00\n        /* \"#utility.yul\":10911:10913   */\n      0x20\n        /* \"#utility.yul\":10900:10909   */\n      dup3\n        /* \"#utility.yul\":10896:10914   */\n      add\n        /* \"#utility.yul\":10888:10914   */\n      swap1\n      pop\n        /* \"#utility.yul\":10960:10969   */\n      dup2\n        /* \"#utility.yul\":10954:10958   */\n      dup2\n        /* \"#utility.yul\":10950:10970   */\n      sub\n        /* \"#utility.yul\":10946:10947   */\n      0x00\n        /* \"#utility.yul\":10935:10944   */\n      dup4\n        /* \"#utility.yul\":10931:10948   */\n      add\n        /* \"#utility.yul\":10924:10971   */\n      mstore\n        /* \"#utility.yul\":10988:11119   */\n      tag_220\n        /* \"#utility.yul\":11114:11118   */\n      dup2\n        /* \"#utility.yul\":10988:11119   */\n      tag_121\n      jump\t// in\n    tag_220:\n        /* \"#utility.yul\":10980:11119   */\n      swap1\n      pop\n        /* \"#utility.yul\":10707:11126   */\n      swap2\n      swap1\n      pop\n      jump\t// out\n\n    auxdata: 0xa26469706673582212207d04ecbef54fb69e9f4d7abf28af7d7a350239374acdfb3269903e9c4956daf164736f6c63430008110033\n}\n",
				"bytecode": {
					"linkReferences": {},
					"object": "6080604052670de0b6b3a764000060005534801561001c57600080fd5b50610dc08061002c6000396000f3fe6080604052600436106100595760003560e01c806335c1d3491461020b5780639cf5453d14610248578063aec2393b14610285578063b88a802f146102b0578063d11711a2146102c7578063dfbf53ae146102d15761005a565b5b600073ffffffffffffffffffffffffffffffffffffffff16600360009054906101000a900473ffffffffffffffffffffffffffffffffffffffff1673ffffffffffffffffffffffffffffffffffffffff16146100eb576040517f08c379a00000000000000000000000000000000000000000000000000000000081526004016100e29061082b565b60405180910390fd5b3273ffffffffffffffffffffffffffffffffffffffff163373ffffffffffffffffffffffffffffffffffffffff1614610159576040517f08c379a000000000000000000000000000000000000000000000000000000000815260040161015090610897565b60405180910390fd5b60046002805490500361017a5760044261017391906108f0565b6005819055505b6002600554815481106101905761018f610921565b5b9060005260206000200160009054906101000a900473ffffffffffffffffffffffffffffffffffffffff16600360006101000a81548173ffffffffffffffffffffffffffffffffffffffff021916908373ffffffffffffffffffffffffffffffffffffffff1602179055506000600481905550426004819055005b34801561021757600080fd5b50610232600480360381019061022d9190610981565b6102fc565b60405161023f91906109ef565b60405180910390f35b34801561025457600080fd5b5061026f600480360381019061026a9190610a36565b61033b565b60405161027c9190610a7e565b60405180910390f35b34801561029157600080fd5b5061029a61035b565b6040516102a79190610aa8565b60405180910390f35b3480156102bc57600080fd5b506102c5610361565b005b6102cf610595565b005b3480156102dd57600080fd5b506102e661076a565b6040516102f391906109ef565b60405180910390f35b6002818154811061030c57600080fd5b906000526020600020016000915054906101000a900473ffffffffffffffffffffffffffffffffffffffff1681565b60016020528060005260406000206000915054906101000a900460ff1681565b60005481565b600360009054906101000a900473ffffffffffffffffffffffffffffffffffffffff1673ffffffffffffffffffffffffffffffffffffffff163373ffffffffffffffffffffffffffffffffffffffff16146103f1576040517f08c379a00000000000000000000000000000000000000000000000000000000081526004016103e890610b0f565b60405180910390fd5b61012c600454426104029190610b5e565b10610442576040517f08c379a000000000000000000000000000000000000000000000000000000000815260040161043990610bde565b60405180910390fd5b3373ffffffffffffffffffffffffffffffffffffffff166108fc479081150290604051600060405180830381858888f19350505050158015610488573d6000803e3d6000fd5b506000600360006101000a81548173ffffffffffffffffffffffffffffffffffffffff021916908373ffffffffffffffffffffffffffffffffffffffff16021790555060005b60028054905081101561058457600060016000600284815481106104f5576104f4610921565b5b9060005260206000200160009054906101000a900473ffffffffffffffffffffffffffffffffffffffff1673ffffffffffffffffffffffffffffffffffffffff1673ffffffffffffffffffffffffffffffffffffffff16815260200190815260200160002060006101000a81548160ff021916908315150217905550808061057c90610bfe565b9150506104ce565b50600260006105939190610790565b565b60005434146105d9576040517f08c379a00000000000000000000000000000000000000000000000000000000081526004016105d090610c92565b60405180910390fd5b600460028054905010610621576040517f08c379a000000000000000000000000000000000000000000000000000000000815260040161061890610cfe565b60405180910390fd5b600160003373ffffffffffffffffffffffffffffffffffffffff1673ffffffffffffffffffffffffffffffffffffffff16815260200190815260200160002060009054906101000a900460ff16156106ae576040517f08c379a00000000000000000000000000000000000000000000000000000000081526004016106a590610d6a565b60405180910390fd5b60018060003373ffffffffffffffffffffffffffffffffffffffff1673ffffffffffffffffffffffffffffffffffffffff16815260200190815260200160002060006101000a81548160ff0219169083151502179055506002339080600181540180825580915050600190039060005260206000200160009091909190916101000a81548173ffffffffffffffffffffffffffffffffffffffff021916908373ffffffffffffffffffffffffffffffffffffffff160217905550565b600360009054906101000a900473ffffffffffffffffffffffffffffffffffffffff1681565b50805460008255906000526020600020908101906107ae91906107b1565b50565b5b808211156107ca5760008160009055506001016107b2565b5090565b600082825260208201905092915050565b7f77696e6e657220616c72656164792063686f73656e0000000000000000000000600082015250565b60006108156015836107ce565b9150610820826107df565b602082019050919050565b6000602082019050818103600083015261084481610808565b9050919050565b7f6f6e6c792068756d616e20657865637574696f6e000000000000000000000000600082015250565b60006108816014836107ce565b915061088c8261084b565b602082019050919050565b600060208201905081810360008301526108b081610874565b9050919050565b6000819050919050565b7f4e487b7100000000000000000000000000000000000000000000000000000000600052601260045260246000fd5b60006108fb826108b7565b9150610906836108b7565b925082610916576109156108c1565b5b828206905092915050565b7f4e487b7100000000000000000000000000000000000000000000000000000000600052603260045260246000fd5b600080fd5b61095e816108b7565b811461096957600080fd5b50565b60008135905061097b81610955565b92915050565b60006020828403121561099757610996610950565b5b60006109a58482850161096c565b91505092915050565b600073ffffffffffffffffffffffffffffffffffffffff82169050919050565b60006109d9826109ae565b9050919050565b6109e9816109ce565b82525050565b6000602082019050610a0460008301846109e0565b92915050565b610a13816109ce565b8114610a1e57600080fd5b50565b600081359050610a3081610a0a565b92915050565b600060208284031215610a4c57610a4b610950565b5b6000610a5a84828501610a21565b91505092915050565b60008115159050919050565b610a7881610a63565b82525050565b6000602082019050610a936000830184610a6f565b92915050565b610aa2816108b7565b82525050565b6000602082019050610abd6000830184610a99565b92915050565b7f6e6f7420616c6c6f776564000000000000000000000000000000000000000000600082015250565b6000610af9600b836107ce565b9150610b0482610ac3565b602082019050919050565b60006020820190508181036000830152610b2881610aec565b9050919050565b7f4e487b7100000000000000000000000000000000000000000000000000000000600052601160045260246000fd5b6000610b69826108b7565b9150610b74836108b7565b9250828203905081811115610b8c57610b8b610b2f565b5b92915050565b7f74696d65206973206f7665720000000000000000000000000000000000000000600082015250565b6000610bc8600c836107ce565b9150610bd382610b92565b602082019050919050565b60006020820190508181036000830152610bf781610bbb565b9050919050565b6000610c09826108b7565b91507fffffffffffffffffffffffffffffffffffffffffffffffffffffffffffffffff8203610c3b57610c3a610b2f565b5b600182019050919050565b7f77726f6e672062696420616d6f756e7400000000000000000000000000000000600082015250565b6000610c7c6010836107ce565b9150610c8782610c46565b602082019050919050565b60006020820190508181036000830152610cab81610c6f565b9050919050565b7f67616d6520656e64656421000000000000000000000000000000000000000000600082015250565b6000610ce8600b836107ce565b9150610cf382610cb2565b602082019050919050565b60006020820190508181036000830152610d1781610cdb565b9050919050565b7f6164647265737320616c726561647920696e0000000000000000000000000000600082015250565b6000610d546012836107ce565b9150610d5f82610d1e565b602082019050919050565b60006020820190508181036000830152610d8381610d47565b905091905056fea26469706673582212207d04ecbef54fb69e9f4d7abf28af7d7a350239374acdfb3269903e9c4956daf164736f6c63430008110033",
					"opcodes": "PUSH1 0x80 PUSH1 0x40 MSTORE PUSH8 0xDE0B6B3A7640000 PUSH1 0x0 SSTORE CALLVALUE DUP1 ISZERO PUSH2 0x1C JUMPI PUSH1 0x0 DUP1 REVERT JUMPDEST POP PUSH2 0xDC0 DUP1 PUSH2 0x2C PUSH1 0x0 CODECOPY PUSH1 0x0 RETURN INVALID PUSH1 0x80 PUSH1 0x40 MSTORE PUSH1 0x4 CALLDATASIZE LT PUSH2 0x59 JUMPI PUSH1 0x0 CALLDATALOAD PUSH1 0xE0 SHR DUP1 PUSH4 0x35C1D349 EQ PUSH2 0x20B JUMPI DUP1 PUSH4 0x9CF5453D EQ PUSH2 0x248 JUMPI DUP1 PUSH4 0xAEC2393B EQ PUSH2 0x285 JUMPI DUP1 PUSH4 0xB88A802F EQ PUSH2 0x2B0 JUMPI DUP1 PUSH4 0xD11711A2 EQ PUSH2 0x2C7 JUMPI DUP1 PUSH4 0xDFBF53AE EQ PUSH2 0x2D1 JUMPI PUSH2 0x5A JUMP JUMPDEST JUMPDEST PUSH1 0x0 PUSH20 0xFFFFFFFFFFFFFFFFFFFFFFFFFFFFFFFFFFFFFFFF AND PUSH1 0x3 PUSH1 0x0 SWAP1 SLOAD SWAP1 PUSH2 0x100 EXP SWAP1 DIV PUSH20 0xFFFFFFFFFFFFFFFFFFFFFFFFFFFFFFFFFFFFFFFF AND PUSH20 0xFFFFFFFFFFFFFFFFFFFFFFFFFFFFFFFFFFFFFFFF AND EQ PUSH2 0xEB JUMPI PUSH1 0x40 MLOAD PUSH32 0x8C379A000000000000000000000000000000000000000000000000000000000 DUP2 MSTORE PUSH1 0x4 ADD PUSH2 0xE2 SWAP1 PUSH2 0x82B JUMP JUMPDEST PUSH1 0x40 MLOAD DUP1 SWAP2 SUB SWAP1 REVERT JUMPDEST ORIGIN PUSH20 0xFFFFFFFFFFFFFFFFFFFFFFFFFFFFFFFFFFFFFFFF AND CALLER PUSH20 0xFFFFFFFFFFFFFFFFFFFFFFFFFFFFFFFFFFFFFFFF AND EQ PUSH2 0x159 JUMPI PUSH1 0x40 MLOAD PUSH32 0x8C379A000000000000000000000000000000000000000000000000000000000 DUP2 MSTORE PUSH1 0x4 ADD PUSH2 0x150 SWAP1 PUSH2 0x897 JUMP JUMPDEST PUSH1 0x40 MLOAD DUP1 SWAP2 SUB SWAP1 REVERT JUMPDEST PUSH1 0x4 PUSH1 0x2 DUP1 SLOAD SWAP1 POP SUB PUSH2 0x17A JUMPI PUSH1 0x4 TIMESTAMP PUSH2 0x173 SWAP2 SWAP1 PUSH2 0x8F0 JUMP JUMPDEST PUSH1 0x5 DUP2 SWAP1 SSTORE POP JUMPDEST PUSH1 0x2 PUSH1 0x5 SLOAD DUP2 SLOAD DUP2 LT PUSH2 0x190 JUMPI PUSH2 0x18F PUSH2 0x921 JUMP JUMPDEST JUMPDEST SWAP1 PUSH1 0x0 MSTORE PUSH1 0x20 PUSH1 0x0 KECCAK256 ADD PUSH1 0x0 SWAP1 SLOAD SWAP1 PUSH2 0x100 EXP SWAP1 DIV PUSH20 0xFFFFFFFFFFFFFFFFFFFFFFFFFFFFFFFFFFFFFFFF AND PUSH1 0x3 PUSH1 0x0 PUSH2 0x100 EXP DUP2 SLOAD DUP2 PUSH20 0xFFFFFFFFFFFFFFFFFFFFFFFFFFFFFFFFFFFFFFFF MUL NOT AND SWAP1 DUP4 PUSH20 0xFFFFFFFFFFFFFFFFFFFFFFFFFFFFFFFFFFFFFFFF AND MUL OR SWAP1 SSTORE POP PUSH1 0x0 PUSH1 0x4 DUP2 SWAP1 SSTORE POP TIMESTAMP PUSH1 0x4 DUP2 SWAP1 SSTORE STOP JUMPDEST CALLVALUE DUP1 ISZERO PUSH2 0x217 JUMPI PUSH1 0x0 DUP1 REVERT JUMPDEST POP PUSH2 0x232 PUSH1 0x4 DUP1 CALLDATASIZE SUB DUP2 ADD SWAP1 PUSH2 0x22D SWAP2 SWAP1 PUSH2 0x981 JUMP JUMPDEST PUSH2 0x2FC JUMP JUMPDEST PUSH1 0x40 MLOAD PUSH2 0x23F SWAP2 SWAP1 PUSH2 0x9EF JUMP JUMPDEST PUSH1 0x40 MLOAD DUP1 SWAP2 SUB SWAP1 RETURN JUMPDEST CALLVALUE DUP1 ISZERO PUSH2 0x254 JUMPI PUSH1 0x0 DUP1 REVERT JUMPDEST POP PUSH2 0x26F PUSH1 0x4 DUP1 CALLDATASIZE SUB DUP2 ADD SWAP1 PUSH2 0x26A SWAP2 SWAP1 PUSH2 0xA36 JUMP JUMPDEST PUSH2 0x33B JUMP JUMPDEST PUSH1 0x40 MLOAD PUSH2 0x27C SWAP2 SWAP1 PUSH2 0xA7E JUMP JUMPDEST PUSH1 0x40 MLOAD DUP1 SWAP2 SUB SWAP1 RETURN JUMPDEST CALLVALUE DUP1 ISZERO PUSH2 0x291 JUMPI PUSH1 0x0 DUP1 REVERT JUMPDEST POP PUSH2 0x29A PUSH2 0x35B JUMP JUMPDEST PUSH1 0x40 MLOAD PUSH2 0x2A7 SWAP2 SWAP1 PUSH2 0xAA8 JUMP JUMPDEST PUSH1 0x40 MLOAD DUP1 SWAP2 SUB SWAP1 RETURN JUMPDEST CALLVALUE DUP1 ISZERO PUSH2 0x2BC JUMPI PUSH1 0x0 DUP1 REVERT JUMPDEST POP PUSH2 0x2C5 PUSH2 0x361 JUMP JUMPDEST STOP JUMPDEST PUSH2 0x2CF PUSH2 0x595 JUMP JUMPDEST STOP JUMPDEST CALLVALUE DUP1 ISZERO PUSH2 0x2DD JUMPI PUSH1 0x0 DUP1 REVERT JUMPDEST POP PUSH2 0x2E6 PUSH2 0x76A JUMP JUMPDEST PUSH1 0x40 MLOAD PUSH2 0x2F3 SWAP2 SWAP1 PUSH2 0x9EF JUMP JUMPDEST PUSH1 0x40 MLOAD DUP1 SWAP2 SUB SWAP1 RETURN JUMPDEST PUSH1 0x2 DUP2 DUP2 SLOAD DUP2 LT PUSH2 0x30C JUMPI PUSH1 0x0 DUP1 REVERT JUMPDEST SWAP1 PUSH1 0x0 MSTORE PUSH1 0x20 PUSH1 0x0 KECCAK256 ADD PUSH1 0x0 SWAP2 POP SLOAD SWAP1 PUSH2 0x100 EXP SWAP1 DIV PUSH20 0xFFFFFFFFFFFFFFFFFFFFFFFFFFFFFFFFFFFFFFFF AND DUP2 JUMP JUMPDEST PUSH1 0x1 PUSH1 0x20 MSTORE DUP1 PUSH1 0x0 MSTORE PUSH1 0x40 PUSH1 0x0 KECCAK256 PUSH1 0x0 SWAP2 POP SLOAD SWAP1 PUSH2 0x100 EXP SWAP1 DIV PUSH1 0xFF AND DUP2 JUMP JUMPDEST PUSH1 0x0 SLOAD DUP2 JUMP JUMPDEST PUSH1 0x3 PUSH1 0x0 SWAP1 SLOAD SWAP1 PUSH2 0x100 EXP SWAP1 DIV PUSH20 0xFFFFFFFFFFFFFFFFFFFFFFFFFFFFFFFFFFFFFFFF AND PUSH20 0xFFFFFFFFFFFFFFFFFFFFFFFFFFFFFFFFFFFFFFFF AND CALLER PUSH20 0xFFFFFFFFFFFFFFFFFFFFFFFFFFFFFFFFFFFFFFFF AND EQ PUSH2 0x3F1 JUMPI PUSH1 0x40 MLOAD PUSH32 0x8C379A000000000000000000000000000000000000000000000000000000000 DUP2 MSTORE PUSH1 0x4 ADD PUSH2 0x3E8 SWAP1 PUSH2 0xB0F JUMP JUMPDEST PUSH1 0x40 MLOAD DUP1 SWAP2 SUB SWAP1 REVERT JUMPDEST PUSH2 0x12C PUSH1 0x4 SLOAD TIMESTAMP PUSH2 0x402 SWAP2 SWAP1 PUSH2 0xB5E JUMP JUMPDEST LT PUSH2 0x442 JUMPI PUSH1 0x40 MLOAD PUSH32 0x8C379A000000000000000000000000000000000000000000000000000000000 DUP2 MSTORE PUSH1 0x4 ADD PUSH2 0x439 SWAP1 PUSH2 0xBDE JUMP JUMPDEST PUSH1 0x40 MLOAD DUP1 SWAP2 SUB SWAP1 REVERT JUMPDEST CALLER PUSH20 0xFFFFFFFFFFFFFFFFFFFFFFFFFFFFFFFFFFFFFFFF AND PUSH2 0x8FC SELFBALANCE SWAP1 DUP2 ISZERO MUL SWAP1 PUSH1 0x40 MLOAD PUSH1 0x0 PUSH1 0x40 MLOAD DUP1 DUP4 SUB DUP2 DUP6 DUP9 DUP9 CALL SWAP4 POP POP POP POP ISZERO DUP1 ISZERO PUSH2 0x488 JUMPI RETURNDATASIZE PUSH1 0x0 DUP1 RETURNDATACOPY RETURNDATASIZE PUSH1 0x0 REVERT JUMPDEST POP PUSH1 0x0 PUSH1 0x3 PUSH1 0x0 PUSH2 0x100 EXP DUP2 SLOAD DUP2 PUSH20 0xFFFFFFFFFFFFFFFFFFFFFFFFFFFFFFFFFFFFFFFF MUL NOT AND SWAP1 DUP4 PUSH20 0xFFFFFFFFFFFFFFFFFFFFFFFFFFFFFFFFFFFFFFFF AND MUL OR SWAP1 SSTORE POP PUSH1 0x0 JUMPDEST PUSH1 0x2 DUP1 SLOAD SWAP1 POP DUP2 LT ISZERO PUSH2 0x584 JUMPI PUSH1 0x0 PUSH1 0x1 PUSH1 0x0 PUSH1 0x2 DUP5 DUP2 SLOAD DUP2 LT PUSH2 0x4F5 JUMPI PUSH2 0x4F4 PUSH2 0x921 JUMP JUMPDEST JUMPDEST SWAP1 PUSH1 0x0 MSTORE PUSH1 0x20 PUSH1 0x0 KECCAK256 ADD PUSH1 0x0 SWAP1 SLOAD SWAP1 PUSH2 0x100 EXP SWAP1 DIV PUSH20 0xFFFFFFFFFFFFFFFFFFFFFFFFFFFFFFFFFFFFFFFF AND PUSH20 0xFFFFFFFFFFFFFFFFFFFFFFFFFFFFFFFFFFFFFFFF AND PUSH20 0xFFFFFFFFFFFFFFFFFFFFFFFFFFFFFFFFFFFFFFFF AND DUP2 MSTORE PUSH1 0x20 ADD SWAP1 DUP2 MSTORE PUSH1 0x20 ADD PUSH1 0x0 KECCAK256 PUSH1 0x0 PUSH2 0x100 EXP DUP2 SLOAD DUP2 PUSH1 0xFF MUL NOT AND SWAP1 DUP4 ISZERO ISZERO MUL OR SWAP1 SSTORE POP DUP1 DUP1 PUSH2 0x57C SWAP1 PUSH2 0xBFE JUMP JUMPDEST SWAP2 POP POP PUSH2 0x4CE JUMP JUMPDEST POP PUSH1 0x2 PUSH1 0x0 PUSH2 0x593 SWAP2 SWAP1 PUSH2 0x790 JUMP JUMPDEST JUMP JUMPDEST PUSH1 0x0 SLOAD CALLVALUE EQ PUSH2 0x5D9 JUMPI PUSH1 0x40 MLOAD PUSH32 0x8C379A000000000000000000000000000000000000000000000000000000000 DUP2 MSTORE PUSH1 0x4 ADD PUSH2 0x5D0 SWAP1 PUSH2 0xC92 JUMP JUMPDEST PUSH1 0x40 MLOAD DUP1 SWAP2 SUB SWAP1 REVERT JUMPDEST PUSH1 0x4 PUSH1 0x2 DUP1 SLOAD SWAP1 POP LT PUSH2 0x621 JUMPI PUSH1 0x40 MLOAD PUSH32 0x8C379A000000000000000000000000000000000000000000000000000000000 DUP2 MSTORE PUSH1 0x4 ADD PUSH2 0x618 SWAP1 PUSH2 0xCFE JUMP JUMPDEST PUSH1 0x40 MLOAD DUP1 SWAP2 SUB SWAP1 REVERT JUMPDEST PUSH1 0x1 PUSH1 0x0 CALLER PUSH20 0xFFFFFFFFFFFFFFFFFFFFFFFFFFFFFFFFFFFFFFFF AND PUSH20 0xFFFFFFFFFFFFFFFFFFFFFFFFFFFFFFFFFFFFFFFF AND DUP2 MSTORE PUSH1 0x20 ADD SWAP1 DUP2 MSTORE PUSH1 0x20 ADD PUSH1 0x0 KECCAK256 PUSH1 0x0 SWAP1 SLOAD SWAP1 PUSH2 0x100 EXP SWAP1 DIV PUSH1 0xFF AND ISZERO PUSH2 0x6AE JUMPI PUSH1 0x40 MLOAD PUSH32 0x8C379A000000000000000000000000000000000000000000000000000000000 DUP2 MSTORE PUSH1 0x4 ADD PUSH2 0x6A5 SWAP1 PUSH2 0xD6A JUMP JUMPDEST PUSH1 0x40 MLOAD DUP1 SWAP2 SUB SWAP1 REVERT JUMPDEST PUSH1 0x1 DUP1 PUSH1 0x0 CALLER PUSH20 0xFFFFFFFFFFFFFFFFFFFFFFFFFFFFFFFFFFFFFFFF AND PUSH20 0xFFFFFFFFFFFFFFFFFFFFFFFFFFFFFFFFFFFFFFFF AND DUP2 MSTORE PUSH1 0x20 ADD SWAP1 DUP2 MSTORE PUSH1 0x20 ADD PUSH1 0x0 KECCAK256 PUSH1 0x0 PUSH2 0x100 EXP DUP2 SLOAD DUP2 PUSH1 0xFF MUL NOT AND SWAP1 DUP4 ISZERO ISZERO MUL OR SWAP1 SSTORE POP PUSH1 0x2 CALLER SWAP1 DUP1 PUSH1 0x1 DUP2 SLOAD ADD DUP1 DUP3 SSTORE DUP1 SWAP2 POP POP PUSH1 0x1 SWAP1 SUB SWAP1 PUSH1 0x0 MSTORE PUSH1 0x20 PUSH1 0x0 KECCAK256 ADD PUSH1 0x0 SWAP1 SWAP2 SWAP1 SWAP2 SWAP1 SWAP2 PUSH2 0x100 EXP DUP2 SLOAD DUP2 PUSH20 0xFFFFFFFFFFFFFFFFFFFFFFFFFFFFFFFFFFFFFFFF MUL NOT AND SWAP1 DUP4 PUSH20 0xFFFFFFFFFFFFFFFFFFFFFFFFFFFFFFFFFFFFFFFF AND MUL OR SWAP1 SSTORE POP JUMP JUMPDEST PUSH1 0x3 PUSH1 0x0 SWAP1 SLOAD SWAP1 PUSH2 0x100 EXP SWAP1 DIV PUSH20 0xFFFFFFFFFFFFFFFFFFFFFFFFFFFFFFFFFFFFFFFF AND DUP2 JUMP JUMPDEST POP DUP1 SLOAD PUSH1 0x0 DUP3 SSTORE SWAP1 PUSH1 0x0 MSTORE PUSH1 0x20 PUSH1 0x0 KECCAK256 SWAP1 DUP2 ADD SWAP1 PUSH2 0x7AE SWAP2 SWAP1 PUSH2 0x7B1 JUMP JUMPDEST POP JUMP JUMPDEST JUMPDEST DUP1 DUP3 GT ISZERO PUSH2 0x7CA JUMPI PUSH1 0x0 DUP2 PUSH1 0x0 SWAP1 SSTORE POP PUSH1 0x1 ADD PUSH2 0x7B2 JUMP JUMPDEST POP SWAP1 JUMP JUMPDEST PUSH1 0x0 DUP3 DUP3 MSTORE PUSH1 0x20 DUP3 ADD SWAP1 POP SWAP3 SWAP2 POP POP JUMP JUMPDEST PUSH32 0x77696E6E657220616C72656164792063686F73656E0000000000000000000000 PUSH1 0x0 DUP3 ADD MSTORE POP JUMP JUMPDEST PUSH1 0x0 PUSH2 0x815 PUSH1 0x15 DUP4 PUSH2 0x7CE JUMP JUMPDEST SWAP2 POP PUSH2 0x820 DUP3 PUSH2 0x7DF JUMP JUMPDEST PUSH1 0x20 DUP3 ADD SWAP1 POP SWAP2 SWAP1 POP JUMP JUMPDEST PUSH1 0x0 PUSH1 0x20 DUP3 ADD SWAP1 POP DUP2 DUP2 SUB PUSH1 0x0 DUP4 ADD MSTORE PUSH2 0x844 DUP2 PUSH2 0x808 JUMP JUMPDEST SWAP1 POP SWAP2 SWAP1 POP JUMP JUMPDEST PUSH32 0x6F6E6C792068756D616E20657865637574696F6E000000000000000000000000 PUSH1 0x0 DUP3 ADD MSTORE POP JUMP JUMPDEST PUSH1 0x0 PUSH2 0x881 PUSH1 0x14 DUP4 PUSH2 0x7CE JUMP JUMPDEST SWAP2 POP PUSH2 0x88C DUP3 PUSH2 0x84B JUMP JUMPDEST PUSH1 0x20 DUP3 ADD SWAP1 POP SWAP2 SWAP1 POP JUMP JUMPDEST PUSH1 0x0 PUSH1 0x20 DUP3 ADD SWAP1 POP DUP2 DUP2 SUB PUSH1 0x0 DUP4 ADD MSTORE PUSH2 0x8B0 DUP2 PUSH2 0x874 JUMP JUMPDEST SWAP1 POP SWAP2 SWAP1 POP JUMP JUMPDEST PUSH1 0x0 DUP2 SWAP1 POP SWAP2 SWAP1 POP JUMP JUMPDEST PUSH32 0x4E487B7100000000000000000000000000000000000000000000000000000000 PUSH1 0x0 MSTORE PUSH1 0x12 PUSH1 0x4 MSTORE PUSH1 0x24 PUSH1 0x0 REVERT JUMPDEST PUSH1 0x0 PUSH2 0x8FB DUP3 PUSH2 0x8B7 JUMP JUMPDEST SWAP2 POP PUSH2 0x906 DUP4 PUSH2 0x8B7 JUMP JUMPDEST SWAP3 POP DUP3 PUSH2 0x916 JUMPI PUSH2 0x915 PUSH2 0x8C1 JUMP JUMPDEST JUMPDEST DUP3 DUP3 MOD SWAP1 POP SWAP3 SWAP2 POP POP JUMP JUMPDEST PUSH32 0x4E487B7100000000000000000000000000000000000000000000000000000000 PUSH1 0x0 MSTORE PUSH1 0x32 PUSH1 0x4 MSTORE PUSH1 0x24 PUSH1 0x0 REVERT JUMPDEST PUSH1 0x0 DUP1 REVERT JUMPDEST PUSH2 0x95E DUP2 PUSH2 0x8B7 JUMP JUMPDEST DUP2 EQ PUSH2 0x969 JUMPI PUSH1 0x0 DUP1 REVERT JUMPDEST POP JUMP JUMPDEST PUSH1 0x0 DUP2 CALLDATALOAD SWAP1 POP PUSH2 0x97B DUP2 PUSH2 0x955 JUMP JUMPDEST SWAP3 SWAP2 POP POP JUMP JUMPDEST PUSH1 0x0 PUSH1 0x20 DUP3 DUP5 SUB SLT ISZERO PUSH2 0x997 JUMPI PUSH2 0x996 PUSH2 0x950 JUMP JUMPDEST JUMPDEST PUSH1 0x0 PUSH2 0x9A5 DUP5 DUP3 DUP6 ADD PUSH2 0x96C JUMP JUMPDEST SWAP2 POP POP SWAP3 SWAP2 POP POP JUMP JUMPDEST PUSH1 0x0 PUSH20 0xFFFFFFFFFFFFFFFFFFFFFFFFFFFFFFFFFFFFFFFF DUP3 AND SWAP1 POP SWAP2 SWAP1 POP JUMP JUMPDEST PUSH1 0x0 PUSH2 0x9D9 DUP3 PUSH2 0x9AE JUMP JUMPDEST SWAP1 POP SWAP2 SWAP1 POP JUMP JUMPDEST PUSH2 0x9E9 DUP2 PUSH2 0x9CE JUMP JUMPDEST DUP3 MSTORE POP POP JUMP JUMPDEST PUSH1 0x0 PUSH1 0x20 DUP3 ADD SWAP1 POP PUSH2 0xA04 PUSH1 0x0 DUP4 ADD DUP5 PUSH2 0x9E0 JUMP JUMPDEST SWAP3 SWAP2 POP POP JUMP JUMPDEST PUSH2 0xA13 DUP2 PUSH2 0x9CE JUMP JUMPDEST DUP2 EQ PUSH2 0xA1E JUMPI PUSH1 0x0 DUP1 REVERT JUMPDEST POP JUMP JUMPDEST PUSH1 0x0 DUP2 CALLDATALOAD SWAP1 POP PUSH2 0xA30 DUP2 PUSH2 0xA0A JUMP JUMPDEST SWAP3 SWAP2 POP POP JUMP JUMPDEST PUSH1 0x0 PUSH1 0x20 DUP3 DUP5 SUB SLT ISZERO PUSH2 0xA4C JUMPI PUSH2 0xA4B PUSH2 0x950 JUMP JUMPDEST JUMPDEST PUSH1 0x0 PUSH2 0xA5A DUP5 DUP3 DUP6 ADD PUSH2 0xA21 JUMP JUMPDEST SWAP2 POP POP SWAP3 SWAP2 POP POP JUMP JUMPDEST PUSH1 0x0 DUP2 ISZERO ISZERO SWAP1 POP SWAP2 SWAP1 POP JUMP JUMPDEST PUSH2 0xA78 DUP2 PUSH2 0xA63 JUMP JUMPDEST DUP3 MSTORE POP POP JUMP JUMPDEST PUSH1 0x0 PUSH1 0x20 DUP3 ADD SWAP1 POP PUSH2 0xA93 PUSH1 0x0 DUP4 ADD DUP5 PUSH2 0xA6F JUMP JUMPDEST SWAP3 SWAP2 POP POP JUMP JUMPDEST PUSH2 0xAA2 DUP2 PUSH2 0x8B7 JUMP JUMPDEST DUP3 MSTORE POP POP JUMP JUMPDEST PUSH1 0x0 PUSH1 0x20 DUP3 ADD SWAP1 POP PUSH2 0xABD PUSH1 0x0 DUP4 ADD DUP5 PUSH2 0xA99 JUMP JUMPDEST SWAP3 SWAP2 POP POP JUMP JUMPDEST PUSH32 0x6E6F7420616C6C6F776564000000000000000000000000000000000000000000 PUSH1 0x0 DUP3 ADD MSTORE POP JUMP JUMPDEST PUSH1 0x0 PUSH2 0xAF9 PUSH1 0xB DUP4 PUSH2 0x7CE JUMP JUMPDEST SWAP2 POP PUSH2 0xB04 DUP3 PUSH2 0xAC3 JUMP JUMPDEST PUSH1 0x20 DUP3 ADD SWAP1 POP SWAP2 SWAP1 POP JUMP JUMPDEST PUSH1 0x0 PUSH1 0x20 DUP3 ADD SWAP1 POP DUP2 DUP2 SUB PUSH1 0x0 DUP4 ADD MSTORE PUSH2 0xB28 DUP2 PUSH2 0xAEC JUMP JUMPDEST SWAP1 POP SWAP2 SWAP1 POP JUMP JUMPDEST PUSH32 0x4E487B7100000000000000000000000000000000000000000000000000000000 PUSH1 0x0 MSTORE PUSH1 0x11 PUSH1 0x4 MSTORE PUSH1 0x24 PUSH1 0x0 REVERT JUMPDEST PUSH1 0x0 PUSH2 0xB69 DUP3 PUSH2 0x8B7 JUMP JUMPDEST SWAP2 POP PUSH2 0xB74 DUP4 PUSH2 0x8B7 JUMP JUMPDEST SWAP3 POP DUP3 DUP3 SUB SWAP1 POP DUP2 DUP2 GT ISZERO PUSH2 0xB8C JUMPI PUSH2 0xB8B PUSH2 0xB2F JUMP JUMPDEST JUMPDEST SWAP3 SWAP2 POP POP JUMP JUMPDEST PUSH32 0x74696D65206973206F7665720000000000000000000000000000000000000000 PUSH1 0x0 DUP3 ADD MSTORE POP JUMP JUMPDEST PUSH1 0x0 PUSH2 0xBC8 PUSH1 0xC DUP4 PUSH2 0x7CE JUMP JUMPDEST SWAP2 POP PUSH2 0xBD3 DUP3 PUSH2 0xB92 JUMP JUMPDEST PUSH1 0x20 DUP3 ADD SWAP1 POP SWAP2 SWAP1 POP JUMP JUMPDEST PUSH1 0x0 PUSH1 0x20 DUP3 ADD SWAP1 POP DUP2 DUP2 SUB PUSH1 0x0 DUP4 ADD MSTORE PUSH2 0xBF7 DUP2 PUSH2 0xBBB JUMP JUMPDEST SWAP1 POP SWAP2 SWAP1 POP JUMP JUMPDEST PUSH1 0x0 PUSH2 0xC09 DUP3 PUSH2 0x8B7 JUMP JUMPDEST SWAP2 POP PUSH32 0xFFFFFFFFFFFFFFFFFFFFFFFFFFFFFFFFFFFFFFFFFFFFFFFFFFFFFFFFFFFFFFFF DUP3 SUB PUSH2 0xC3B JUMPI PUSH2 0xC3A PUSH2 0xB2F JUMP JUMPDEST JUMPDEST PUSH1 0x1 DUP3 ADD SWAP1 POP SWAP2 SWAP1 POP JUMP JUMPDEST PUSH32 0x77726F6E672062696420616D6F756E7400000000000000000000000000000000 PUSH1 0x0 DUP3 ADD MSTORE POP JUMP JUMPDEST PUSH1 0x0 PUSH2 0xC7C PUSH1 0x10 DUP4 PUSH2 0x7CE JUMP JUMPDEST SWAP2 POP PUSH2 0xC87 DUP3 PUSH2 0xC46 JUMP JUMPDEST PUSH1 0x20 DUP3 ADD SWAP1 POP SWAP2 SWAP1 POP JUMP JUMPDEST PUSH1 0x0 PUSH1 0x20 DUP3 ADD SWAP1 POP DUP2 DUP2 SUB PUSH1 0x0 DUP4 ADD MSTORE PUSH2 0xCAB DUP2 PUSH2 0xC6F JUMP JUMPDEST SWAP1 POP SWAP2 SWAP1 POP JUMP JUMPDEST PUSH32 0x67616D6520656E64656421000000000000000000000000000000000000000000 PUSH1 0x0 DUP3 ADD MSTORE POP JUMP JUMPDEST PUSH1 0x0 PUSH2 0xCE8 PUSH1 0xB DUP4 PUSH2 0x7CE JUMP JUMPDEST SWAP2 POP PUSH2 0xCF3 DUP3 PUSH2 0xCB2 JUMP JUMPDEST PUSH1 0x20 DUP3 ADD SWAP1 POP SWAP2 SWAP1 POP JUMP JUMPDEST PUSH1 0x0 PUSH1 0x20 DUP3 ADD SWAP1 POP DUP2 DUP2 SUB PUSH1 0x0 DUP4 ADD MSTORE PUSH2 0xD17 DUP2 PUSH2 0xCDB JUMP JUMPDEST SWAP1 POP SWAP2 SWAP1 POP JUMP JUMPDEST PUSH32 0x6164647265737320616C726561647920696E0000000000000000000000000000 PUSH1 0x0 DUP3 ADD MSTORE POP JUMP JUMPDEST PUSH1 0x0 PUSH2 0xD54 PUSH1 0x12 DUP4 PUSH2 0x7CE JUMP JUMPDEST SWAP2 POP PUSH2 0xD5F DUP3 PUSH2 0xD1E JUMP JUMPDEST PUSH1 0x20 DUP3 ADD SWAP1 POP SWAP2 SWAP1 POP JUMP JUMPDEST PUSH1 0x0 PUSH1 0x20 DUP3 ADD SWAP1 POP DUP2 DUP2 SUB PUSH1 0x0 DUP4 ADD MSTORE PUSH2 0xD83 DUP2 PUSH2 0xD47 JUMP JUMPDEST SWAP1 POP SWAP2 SWAP1 POP JUMP INVALID LOG2 PUSH5 0x6970667358 0x22 SLT KECCAK256 PUSH30 0x4ECBEF54FB69E9F4D7ABF28AF7D7A350239374ACDFB3269903E9C4956DA CALL PUSH5 0x736F6C6343 STOP ADDMOD GT STOP CALLER "
				},
				"gasEstimates": {
					"creation": {
						"codeDepositCost": "704000",
						"executionCost": "22840",
						"totalCost": "726840"
					},
					"external": {
						"": "infinite",
						"bid(address)": "2845",
						"bidAmount()": "2451",
						"claimReward()": "infinite",
						"participants(uint256)": "4934",
						"participate()": "79618",
						"winner()": "2602"
					}
				},
				"methodIdentifiers": {
					"bid(address)": "9cf5453d",
					"bidAmount()": "aec2393b",
					"claimReward()": "b88a802f",
					"participants(uint256)": "35c1d349",
					"participate()": "d11711a2",
					"winner()": "dfbf53ae"
				}
			},
			"storageLayout": {
				"storage": [
					{
						"astId": 4,
						"contract": "challenge_2.sol:collect",
						"label": "bidAmount",
						"offset": 0,
						"slot": "0",
						"type": "t_uint256"
					},
					{
						"astId": 8,
						"contract": "challenge_2.sol:collect",
						"label": "bid",
						"offset": 0,
						"slot": "1",
						"type": "t_mapping(t_address,t_bool)"
					},
					{
						"astId": 11,
						"contract": "challenge_2.sol:collect",
						"label": "participants",
						"offset": 0,
						"slot": "2",
						"type": "t_array(t_address)dyn_storage"
					},
					{
						"astId": 13,
						"contract": "challenge_2.sol:collect",
						"label": "winner",
						"offset": 0,
						"slot": "3",
						"type": "t_address"
					},
					{
						"astId": 15,
						"contract": "challenge_2.sol:collect",
						"label": "start",
						"offset": 0,
						"slot": "4",
						"type": "t_uint256"
					},
					{
						"astId": 17,
						"contract": "challenge_2.sol:collect",
						"label": "luckyIndex",
						"offset": 0,
						"slot": "5",
						"type": "t_uint256"
					}
				],
				"types": {
					"t_address": {
						"encoding": "inplace",
						"label": "address",
						"numberOfBytes": "20"
					},
					"t_array(t_address)dyn_storage": {
						"base": "t_address",
						"encoding": "dynamic_array",
						"label": "address[]",
						"numberOfBytes": "32"
					},
					"t_bool": {
						"encoding": "inplace",
						"label": "bool",
						"numberOfBytes": "1"
					},
					"t_mapping(t_address,t_bool)": {
						"encoding": "mapping",
						"key": "t_address",
						"label": "mapping(address => bool)",
						"numberOfBytes": "32",
						"value": "t_bool"
					},
					"t_uint256": {
						"encoding": "inplace",
						"label": "uint256",
						"numberOfBytes": "32"
					}
				}
			},
			"userdoc": {
				"kind": "user",
				"methods": {},
				"version": 1
			}
		}
	}
}